:020000040800F2
:100000008007002029020008C3100008BB10000868
:10001000BF100008C5030008A51300080000000079
:10002000000000000000000000000000C7100008F1
:10003000C903000800000000C51000089511000861
:10004000430200084302000843020008430200087C
:10005000430200084302000843020008430200086C
:10006000430200084302000843020008430200085C
:10007000430200084302000843020008430200084C
:10008000430200084302000843020008430200083C
:10009000430200084302000843020008430200082C
:1000A000430200084302000843020008430200081C
:1000B000430200084302000843020008430200080C
:1000C00043020008430200084302000843020008FC
:1000D00043020008651300084302000843020008B9
:1000E00043020008430200084302000843020008DC
:1000F00043020008430200084302000843020008CC
:1001000043020008430200084302000843020008BB
:1001100043020008430200084302000843020008AB
:10012000430200084302000843020008430200089B
:10013000430200084302000843020008430200088B
:10014000430200084302000843020008430200087B
:10015000430200084302000843020008430200086B
:10016000430200084302000843020008430200085B
:100170004302000843020008430200080000000098
:10018000430200084302000800F002F800F03CF8C7
:100190000AA090E8000C82448344AAF10107DA45E2
:1001A00001D100F031F8AFF2090EBAE80F0013F0F8
:1001B000010F18BFFB1A43F001031847E0120000BB
:1001C00000130000103A24BF78C878C1FAD852074B
:1001D00024BF30C830C144BF04680C6070470000C1
:1001E0000023002400250026103A28BF78C1FBD840
:1001F000520728BF30C148BF0B6070471FB501F0E0
:100200003BF91FBD10B510BD00F0AAF81146FFF76D
:10021000F5FF01F0E7F800F0C8F803B4FFF7F2FFCC
:1002200003BC01F0DDF80000094880470948004799
:10023000FEE7FEE7FEE7FEE7FEE7FEE7FEE7FEE796
:10024000FEE7FEE704480549054A064B70470000F3
:100250009D1100088901000880010020800700200E
:100260008003002080030020704753EA020C00F056
:1002700069802DE9F04B4FF00006002B1FBFB3FA49
:1002800083F503FA05F424FA05F65E4012BF16431F
:10029000B2FA82F502FA05F4C5F120051EBF22FA72
:1002A00005FC44EA0C04203556EA044C4FEA144499
:1002B00018BF641C4FF000084FF00009904271EB2A
:1002C000030C39D3002919BFB1FA81F701FA07F6F7
:1002D000B0FA80F700FA07F6C7F120071EBF20FA30
:1002E00007FC46EA0C062037B6FBF4FCA7EB050733
:1002F000103F07F01F0BCBF120060CFA0BFB2CFA7A
:1003000006F644BFB3460026202FA4BF5E464FF03A
:10031000000B5BEA060C08BF4FF0010B19EB0B0951
:10032000ABFB027C48EB0608C01B06FB02CC0BFBB8
:1003300003CC71EB0C01C1E70B460246414648462F
:10034000BDE8F08B13B54FF000004FF00001AFF3A4
:100350000080BDE81C407047704770477047704789
:10036000754600F02BF8AE4605006946534620F06E
:100370000700854618B020B5FFF764FFBDE82040B0
:100380004FF000064FF000074FF000084FF0000B51
:1003900021F00701AC46ACE8C009ACE8C009ACE804
:1003A000C009ACE8C0098D46704710B50446AFF3EC
:1003B00000802046BDE81040FFF72FBF004870477F
:1003C0002001002000BFFEE7704701B500BF009884
:1003D000411E00910028FAD108BD014691F8350070
:1003E000022803D08020486501207047052081F84D
:1003F00035000868006820F001000A6810600020DD
:10040000F3E70000F8B502460B4600250024002063
:100410000021DCE0012606FA01F51E6806EA050463
:10042000AC4273D15E68012E08D05E68022E05D002
:100430005E68112E02D05E68122E13D190684F00B4
:100440000326BE40B0434F00DE68BE40304390609C
:10045000506801268E40B0431E79C6F300168E40C8
:1004600030435060D0684F000326BE40B0434F0079
:100470009E68BE403043D0605E68022E02D05E6847
:10048000122E13D1CF0802F1200656F827004E078E
:10049000F70E0F26BE40B0434F07FF0E1E69BE4049
:1004A0003043CF0802F1200646F8270010684F00BD
:1004B0000326BE40B0431E7906F003064F00BE403F
:1004C000304310605E6806F08056B6F1805F7DD1E3
:1004D00000BF00260096404E366846F480463E4FE8
:1004E0003E603E46366806F48046009600BF00BF78
:1004F0003A4E8F0856F827008E07370F0F26BE405A
:10050000B043374EB24202D1002624E05EE0354EC1
:10051000B24201D101261EE0334EB24201D1022681
:1005200019E0324EB24201D1032614E0304EB242FD
:1005300001D104260FE02F4EB24201D105260AE078
:100540002D4EB24201D1062605E02C4EB24201D119
:10055000072600E008268F073F0FBE4030431F4E9E
:100560008F0846F82700264E3068A0435E6806F4E0
:100570008036B6F5803F00D12043214E3060361DD5
:100580003068A0435E6806F40036B6F5003F00D13F
:1005900020431B4E361D3060361D3068A0435E6818
:1005A00006F48016B6F5801F00D12043144E08369D
:1005B0003060361D3068A0435E6806F40016B6F55C
:1005C000001F00D120430E4E0C363060491C10290C
:1005D000FFF420AFF8BD0000443802400838014065
:1005E000000002400004024000080240000C0240EB
:1005F000001002400014024000180240001C02409B
:10060000003C01400AB1816101E00B048361704745
:1006100001480068000C7047002004E001480068B1
:10062000704700000400002003480068034909786F
:100630000844014908607047040000200C000020B5
:1006400010B50A48006840F4007008490860084680
:10065000006840F480600860032000F06FF80F200D
:1006600000F006F800F02AF8002010BD003C02401F
:1006700070B504460E4800784FF47A71B1FBF0F083
:100680000C490968B1FBF0F5284600F0C9FB08B138
:10069000012070BD102C07D200222146501E00F010
:1006A0000EF80548046001E00120F2E70020F0E7C1
:1006B0000C000020000000200800002070472DE9F9
:1006C000F05F80460D461646002700F06DFE074697
:1006D00039462A46334601F00700C0F1070ABAF14D
:1006E000040F02D94FF0040A01E0C0F1070AD14615
:1006F00000F1040ABAF1070F02D24FF0000A01E03C
:10070000A0F1030AD4464FF0010A0AFA09FAAAF145
:10071000010A0AEA020A0AFA0CFA4FF0010B0BFA74
:100720000CFBABF1010B0BEA030B4AEA0B0421466D
:10073000404600F041FEBDE8F09F000000BF00F021
:100740000702064B19684FF6FF031940044B0B4391
:1007500043EA0221014B196000BF70470CED00E035
:100760000000FA0570B504460D460CB9012070BDB5
:100770005848006800F00F00A84209D255490D7092
:100780000846006800F00F00A84201D00120EEE703
:10079000207800F0020002281DD1207800F004002B
:1007A000042805D14C48006840F4E0504A490860EC
:1007B000207800F00800082805D14748006840F478
:1007C0006040454908604448006820F0F000A16896
:1007D000084341490860207800F00100A8B3606830
:1007E000012807D13C4808380068C0F34040B8B938
:1007F0000120BCE76068022802D06068032807D1A6
:10080000354808380068C0F3406048B90120AEE7B9
:10081000314808380068C0F3400008B90120A6E755
:100820002D48006820F00300616808432A490860E9
:10083000FFF7F4FE064609E0FFF7F0FE801B41F2E9
:100840008831884202D9032091E707E022480068F6
:1008500000F00C006168B0EB810FEDD11D4800681D
:1008600000F00F00A84209D91A490D700846006827
:1008700000F00F00A84201D0012078E7207800F0B6
:100880000400042807D11448006820F4E050E1680F
:10089000084311490860207800F00800082808D1B2
:1008A0000D48006820F46040216940EAC1000A490F
:1008B000086000F019F808490968C1F30311074AF4
:1008C000515CC8400649086006480068FFF7D0FE42
:1008D00000204CE7003C0240083802408214000827
:1008E00000000020080000202DE9F047002400252A
:1008F0000026A1462548006800F00C0020B104281D
:1009000005D008283AD105E0DFF8849039E0DFF817
:10091000849036E01D48001F006800F03F041B482B
:10092000001F006800F4800078B11A481749091FB9
:100930000968C1F38811A0FB01700146224600231B
:100940003846FFF792FC05460EE011480F49091F93
:100950000968C1F38811A0FB0170014622460023FB
:100960003846FFF782FC05460848001F0068C0F3C0
:100970000140401C4600B5FBF6F902E0DFF810909C
:1009800000BF00BF4846BDE8F087000008380240BD
:100990000024F40000127A00F8B504460CB90120D6
:1009A000F8BD207800F00100002874D0F9480068F4
:1009B00000F00C0004280DD0F648006800F00C0090
:1009C000082813D1F348001F006800F48000B0F538
:1009D000800F0BD1EF4808380068C0F34040002872
:1009E00059D06068002856D10120D9E700BF60685F
:1009F000B0F5803F08D1E7480838006840F48030FF
:100A0000E449083908601EE06068B0F5A02F0DD1F8
:100A1000E0480838006840F48020DE490839086062
:100A20000846006840F4803008600CE0D948083877
:100A3000006820F48030D74908390860084600680B
:100A400020F48020086000BF606890B1FFF7E6FDE9
:100A5000054606E0FFF7E2FD401B642801D90320AC
:100A60009EE7CC4808380068C0F340400028F1D029
:100A700011E0FFF7D3FD054606E0FFF7CFFD401B71
:100A8000642801D903208BE7C24808380068C0F306
:100A900040400028F1D1207800F0020002285FD108
:100AA000BC48006800F00C0058B1BA48006800F07B
:100AB0000C0008281CD1B748001F006800F4800013
:100AC000B0B9B44808380068C0F3400020B1E0680D
:100AD000012801D0012063E7AE480838006820F003
:100AE000F800216940EAC100AA490839086037E0E6
:100AF000E06800B30120A8490860FFF78FFD0546B4
:100B000006E0FFF78BFD401B022801D9032047E7D1
:100B1000A04808380068C0F340000028F1D09D4884
:100B20000838006820F0F800216940EAC1009949BE
:100B30000839086014E0002097490860FFF76EFD4F
:100B4000054606E0FFF76AFD401B022801D9032095
:100B500026E7904808380068C0F340000028F1D12B
:100B6000207800F0080008282CD16069A8B1012085
:100B70008A490860FFF752FD054606E0FFF74EFD83
:100B8000401B022801D903200AE782486C30006824
:100B9000C0F340000028F1D014E000207F49086035
:100BA000FFF73CFD054606E0FFF738FD401B022835
:100BB00001D90320F4E677486C300068C0F34000A8
:100BC0000028F1D1207800F00400042870D100271B
:100BD00070483830006800F0805090B900BF0020A5
:100BE00000906C483830006840F0805069493831D6
:100BF00008600846006800F08050009000BF00BF09
:100C000001276748006800F48070B0B96448006844
:100C100040F4807062490860FFF700FD054606E079
:100C2000FFF7FCFC401B022801D90320B8E65C4812
:100C3000006800F480700028F2D000BFA06801288E
:100C400008D154486830006840F0010051496831CB
:100C500008601DE0A06805280DD14E486830006886
:100C600040F004004B49683108600846006840F0D5
:100C7000010008600CE047486830006820F001007F
:100C80004449683108600846006820F004000860A4
:100C900000BFA068A8B1FFF7C1FC054609E0FFF757
:100CA000BDFC401B41F28831884202D9032077E61F
:100CB00026E0384868300068C0F340000028EED0D5
:100CC00013E0FFF7ABFC054608E0FFF7A7FC401B6D
:100CD00041F28831884201D9032061E62D4868300D
:100CE0000068C0F340000028EFD1012F07D1294848
:100CF0003830006820F0805026493831086000BF45
:100D0000A069002845D02348006800F00C0008289E
:100D10005DD0A069022845D100201F490866FFF771
:100D20007DFC054606E0FFF779FC401B022801D94F
:100D3000032035E6174808380068C0F340600028F3
:100D4000F1D1D4E907010843616A40EA8111012227
:100D5000A06AC2EB500041EA00412C20005D41EA4C
:100D600000600C49091F086001200B490866FFF765
:100D700055FC054606E0FFF751FC401B022801D94F
:100D800003200DE6034808380068C0F340600028DF
:100D9000F1D03FE00838024000004742800E474251
:100DA0000070004000201C490866FFF737FC05462C
:100DB00006E0FFF733FC401B022801D90320EFE5D2
:100DC00016480068C0F340600028F2D122E0A06914
:100DD000012800D1E4E51148001D066806F48001F1
:100DE000E069814214D106F03F01206A81420FD1AF
:100DF00047F6C0703040616A884209D106F440313C
:100E0000A06A814204D106F07061E06A814201D09B
:100E10000120C5E50020C3E500004742003802403C
:100E200070B504462546681EB0F1807F01D30120CD
:100E30000FE0681E4FF0E02148610F214FF0FF30B6
:100E400000F0BAFA00204FF0E02188610720086125
:100E5000002070BD704701460022002391F8392020
:100E600091F83A3042EA0300704700002DE9F0475C
:100E70000446206805682068C668206847694FF006
:100E80000008C14605F00F08B8F1000F0AD105F0BF
:100E9000200038B106F0200020B1204600F0DAF939
:100EA000BDE8F087B8F1000F72D007F0010018B963
:100EB00006F4907000286BD005F0010030B106F404
:100EC000807018B1E06B40F00100E06305F00400B1
:100ED00030B107F0010018B1E06B40F00200E063B0
:100EE00005F0020030B107F0010018B1E06B40F0EE
:100EF0000400E06305F0080048B106F0200010B9D6
:100F000007F0010018B1E06B40F00800E063E06B0F
:100F100070B305F0200028B106F0200010B1204683
:100F200000F098F920684069C0F38019E06B00F088
:100F3000080010B9B9F1000F23D0204600F06AF97B
:100F40002068406900F04000402816D120684069C0
:100F500020F0400021684861606B50B11748616B18
:100F60000865606BFFF739FA10B1606B016D884757
:100F70000CE02046FFF76EFF08E02046FFF76AFF0F
:100F800004E02046FFF766FF0020E06388E7FFE704
:100F900005F0800030B106F0800018B1204600F066
:100FA000ACF97DE705F0400030B106F0400018B123
:100FB000204600F03FF973E700BF71E70112000817
:100FC00010B5034693F83A0020282FD101B10AB991
:100FD000012010BD00BF93F83800012801D1022084
:100FE000F7E7012083F8380000BF99629A85DA8517
:100FF0000020D863222083F83A0000BF002083F845
:10100000380000BF1868C06840F480701C68E06059
:101010001868406940F001001C6860611868C06889
:1010200040F020001C68E0600020D2E70220D0E7FA
:101030001D4A0168914236D11C49098801F40041DA
:1010400089BB1A49098801F4804171B118490978AE
:101050000A2903D00021154A118024E01349098888
:1010600041F40041114A11801DE0114909780D2910
:1010700006D10E49098841F480410C4A118012E0E2
:101080000B490978094A1288C2F30D02094B995499
:1010900006490988491C054A118011460988C72953
:1010A00001DD002111807047001001401400002074
:1010B0001600002018000020704700BFFEE700BFA8
:1010C000FEE77047704770472DE9F04192B0044643
:1010D000884615461E46002700BF002000902A487B
:1010E000006840F08050284908600846006800F019
:1010F0008050009000BF00BF00BF00200090234838
:10110000006840F48040214908600846006800F407
:101110008040009000BF00BF0120069000040790AF
:1011200002200C9041050D91CDF838800F94109558
:10113000119606A8FFF730FC07460FB100BFFEE787
:101140000F20019002200290002003904FF4A05045
:1011500004904FF480500590052101A8FFF702FB91
:1011600007460FB100BFFEE7FFF752FA41F2010157
:10117000884205D10648006840F480700449086040
:1011800012B0BDE8F081000040380240007000401D
:10119000003C024010B5FFF747FA10BD1448006844
:1011A00040F47000124908601248006840F00100E5
:1011B0001049086000200F49083108600D48006898
:1011C0000D4908400B4908600C48091D0860081FBC
:1011D000006820F48020091F0860002005490C31B8
:1011E00008604FF0006002498039086070470000D5
:1011F00088ED00E000380240FFFFF6FE10300024CA
:1012000070B50546AC6B0020E085E0842046FFF712
:1012100021FE70BD0168C96821F490710268D16037
:101220000168496921F0010102685161202180F8BB
:101230003A10704710B504462068C06820F040009E
:101240002168C860202084F839002046FFF734FF69
:10125000002010BD70B5044694F83A0022284AD107
:10126000A068B0F5805F13D1A56A206940B92068F5
:101270004068C0F308002880A06A801CA06219E0C2
:1012800020684068C0B22880A06A401CA06211E0BB
:10129000206938B920684068C1B2A26A501CA062B7
:1012A000117007E02068406800F07F01A26A501CBE
:1012B000A0621170E08D401E80B2E085C8B9206840
:1012C000C06820F020002168C8602068C06820F451
:1012D00080702168C8602068406920F001002168A2
:1012E0004861202084F83A002046FFF7A1FE002044
:1012F00070BD0020FCE70220FAE7014691F83900B2
:1013000021282CD18868B0F5805F0FD10A6A108837
:10131000C0F308000B685860086918B9086A801C97
:10132000086209E0086A401C086205E00B6A581C64
:10133000086218780B685860C88C401E80B2C88458
:1013400058B90868C06820F080000B68D860086849
:10135000C06840F040000B68D86000207047022051
:10136000FCE7000010B500240C48FFF77FFD00BF2C
:1013700001E0641C00BF0948FFF76DFD2028F8D18B
:1013800000BF002401E0641C00BF0122044903489F
:10139000FFF716FE0028F6D100BF10BDE0000020C8
:1013A0001600002000BFFEE702480068C0F30220DC
:1013B000704700000CED00E010B5002804DB0A07C0
:1013C000130E054A135406E00A07140E034A00F0F0
:1013D0000F031B1FD45410BD00E400E018ED00E023
:1013E00000BF704786B0FFF72BF9072302220821C0
:1013F0004FF4A870FFF768FE00BF002000901B4864
:10140000006840F02000194908600846006800F0B4
:101410002000009000BF00BF4FF4C0600190012089
:10142000029003900320049001A91148FEF7EAFFFF
:101430001BE0012251020E48FFF7E4F8012291025D
:101440000B48FFF7DFF80B48FEF7BFFF00224FF411
:1014500000710748FFF7D6F800224FF48061044876
:10146000FFF7D0F80348FEF7B0FFE2E7303802405C
:1014700000140240FFFF7F004FF04070E1EE100AC1
:10148000704700000000000000000102030406078E
:10149000080900000000010203040000BC14000859
:1014A0000000002018000000C4010008D414000847
:1014B0001800002068070000E00100080024F40084
:1014C000000000001000000001000000000000000B
:0414D0000000000018
:040000050800018965
:00000001FF
