:020000040800F2
:1000000040290020C101000893330008D52F0008C3
:1000100091330008FD030008713F00080000000054
:10002000000000000000000000000000A3380008ED
:100030001904000800000000953300084139000849
:10004000DB010008DB010008DB010008DB01000820
:10005000DB010008DB010008DB010008DB01000810
:10006000DB010008DB010008DB01000801040008D7
:10007000DB0100080D040008DB010008DB010008BB
:10008000DB010008DB010008DB010008DB010008E0
:10009000DB010008DB010008DB010008DB010008D0
:1000A000DB010008DB010008DB010008DB010008C0
:1000B000DB010008DB010008DB010008DB010008B0
:1000C000DB010008DB010008DB010008DB010008A0
:1000D000DB010008DB010008DB010008653F0008C8
:1000E000DB010008DB010008DB010008DB01000880
:1000F000DB010008DB010008DB010008DB01000870
:10010000DB010008DB010008DB010008DB0100085F
:10011000DB010008DB01000899390008A539000857
:10012000DB010008DB010008DB010008DB0100083F
:10013000DB010008DB010008DB010008DB0100082F
:10014000DB010008DB010008DB010008DB0100081F
:10015000DB010008DB010008DB010008DB0100080F
:10016000DB010008DB010008DB010008DB010008FF
:10017000DB010008DB010008DB01000800000000D3
:10018000DB010008DB010008DB010008DB010008DF
:10019000DB010008DB010008DB010008DB010008CF
:1001A000DB010008DB010008DB010008DFF80CD0F0
:1001B00000F090F8004800477160000840290020D6
:1001C0000648804706480047FEE7FEE7FEE7FEE7F1
:1001D000FEE7FEE7FEE7FEE7FEE7FEE7513900082F
:1001E000AD0100082DE9F05F0546002092469B46D0
:1001F00088460646814640241BE02846414647463D
:10020000224600F056F853465A46C01A914110D380
:1002100011461846224600F03DF82D1A67EB0108FA
:100220004F4622460120002100F034F817EB000968
:100230004E41201EA4F10104DFDC484631462A4627
:10024000434600F000B830BCBDE8C09F40EA01035F
:100250009B0703D009E008C9121F08C0042AFAD27C
:1002600003E011F8013B00F8013B521EF9D2704740
:10027000D2B201E000F8012B491EFBD270470022E8
:10028000F6E710B513460A4604461946FFF7F0FF95
:10029000204610BD202A04DB203A00FA02F100209B
:1002A00070479140C2F1200320FA03F319439040B4
:1002B0007047202A04DB203A21FA02F0002170471F
:1002C00021FA02F3D040C2F12002914008431946BE
:1002D00070470000064C074D06E0E06840F001035F
:1002E00094E8070098471034AC42F6D3FFF762FF5A
:1002F000046700082467000810B5806AC16D11F01A
:10030000500FC16D05D011F0100F18BF00F0F2FBB7
:1003100010BD41F40071C16501680A6812F0080F50
:1003200010D0CA6812F4406F04BFC96811F4005FAE
:1003300018D1C16D21F48071C165C16D11F4805F68
:1003400010D10BE0C96811F0020F0BD1C16D21F47F
:100350008071C165C16D11F4805F03D1C16D41F041
:100360000101C16500F0C4FB10BD10B5806AC16D0C
:1003700041F04001C165016E41F00401016600F0E9
:10038000B9FB10BD10B5806A00F0B3FB10BD70B5AD
:1003900004460068816801F00301012903D1016866
:1003A00011F0010F28D181686FF39E11A9B98168FE
:1003B00041F00101816001F04BF8054620680068BA
:1003C00010F0010F18D12068816841F001018160AF
:1003D00001F03EF8401B022809D9E06D40F0100002
:1003E000E065206E40F001002066012070BD2068AD
:1003F000006810F0010FE6D0002070BDFEE700009D
:10040000014800F0B5BD000070010020014800F077
:10041000AFBD0000BC0000207047FEE790F85820F8
:100420000023012A04BF0220704770B49BB0012250
:1004300080F8582002684FF0000CA2F1A044B4F5F7
:10044000802409D0C16D41F02001C16580F858C0F9
:100450001BB0012070BC7047334C0094926812F0BE
:10046000040F03D1A26812F0040F0BD0C16D41F04C
:100470002001C1655FF0010380F858C01BB0184629
:1004800070BC7047294A0C686CB394684FF40056EE
:1004900096FAA6F6456BB6FA86F624F46044B540A3
:1004A0002C434D682C4394600468A56805F003054F
:1004B000012D03D1246814F0010FDDD1009CA46844
:1004C00004F00304012C04D1009C246814F0010FF3
:1004D000D2D10C6889682143946824F01F0424F465
:1004E000706421431DE0916821F4604191600168CE
:1004F0008C6804F00304012C03D1096811F0010F8A
:10050000BAD10099896801F00301012904D1009949
:10051000096811F0010FAFD1916821F01F0121F49A
:1005200070619160A8E700000001045000030450CE
:100530002DE9F00784B04FF0000CCDF808C090F81A
:1005400058206446012A01BF022004B0BDE8F0072C
:100550007047012780F858700268936813F0040F01
:1005600040F063824D681F264FF4F863052D17D2C3
:10057000D2F8308093FAA3F9B9FA89F905FB09F9A1
:1005800006FA09F628EA060693FAA3F3B3FA83F308
:10059000D1F800806B4308FA03F3334313634DE053
:1005A0000A2D18D2D2F8348093FAA3F9B9FA89F94E
:1005B0006D1F05FB09F906FA09F628EA060693FA03
:1005C000A3F3B3FA83F3D1F800806B4308FA03F383
:1005D0003343536332E00F2D18D2D2F8388093FAA8
:1005E000A3F9B9FA89F90A3D05FB09F906FA09F6F2
:1005F00028EA060693FAA3F3B3FA83F3D1F800804E
:100600006B4308FA03F33343936317E0D2F83C805B
:1006100093FAA3F9B9FA89F90F3D05FB09F906FA2E
:1006200009F628EA060693FAA3F3B3FA83F3D1F89E
:1006300000806B4308FA03F33343D3630268936883
:100640004FF0070613F00C0F4FF038037DD10D6803
:100650000A2D8D682CD3B5F1004F04BF556945F0C4
:10066000004505D0002D04BF556925F0004500D197
:1006700055610268D2F818800D7893FAA3F9B9FA97
:1006800089F90A3D05FB09F906FA09F928EA09087A
:10069000D1F8089093FAA3FABAFA8AFA29F0004935
:1006A00005FB0AF509FA05F548EA050595612AE012
:1006B000B5F1004F04BF556945F0004505D0002D48
:1006C00004BF556925F0004500D155610268D2F894
:1006D00014800D7893FAA3F9B9FA89F905FB09F9A1
:1006E00006FA09F928EA0908D1F8089093FAA3FA5A
:1006F000BAFA8AFA29F0004905FB0AF509FA05F564
:1007000048EA0505556102684D69D2F80C80D1F8B8
:1007100010A0C8F3C1084FEA480805FA08F5DFF849
:10072000B4834FF0F849BAF1010F59D0BAF1020F72
:100730006AD0BAF1030F7DD0BAF1040F79D0156EEB
:1007400099FAA9FA05F0F84500E042E0D1F80080F6
:10075000BAFA8AFA08FA0AF8454503D1156E25F067
:10076000004515660268556E99FAA9FAD1F800801D
:10077000BAFA8AFA05F0F84508FA0AF8454503D1AD
:10078000556E25F0004555660268956E99FAA9FAEE
:10079000D1F80080BAFA8AFA05F0F84508FA0AF8A2
:1007A000454503D1956E25F0004595660268D56EE6
:1007B00099FAA9F9D1F80080B9FA89F905F0F84554
:1007C00008FA09F8454504BFD56E25F0004500D16B
:1007D000D5660268956805F00305012D55D150E0F6
:1007E000D2F860A099FAA9F90AEA0808D1F800A09D
:1007F000B9FA89F90AFA09F949EA050548EA050545
:1008000045F000451566E4E7D2F864A099FAA9F925
:100810000AEA0808D1F800A0B9FA89F90AFA09F930
:1008200049EA050548EA050545F000455566D0E763
:1008300000E013E0D2F868A099FAA9F90AEA0808DA
:10084000D1F800A0B9FA89F90AFA09F949EA0505C7
:1008500048EA050545F000459566BAE7D2F86CA070
:1008600099FAA9F90AEA0808D1F800A0B9FA89F9B1
:100870000AFA09F949EA050548EA050545F000457F
:10088000A6E7156815F0010F78D1CD68B5F1804F56
:1008900008D0D2F8B0300D7807FA05F5AB43C2F8AE
:1008A000B0305FE0D2F8B05091F8008007FA08F756
:1008B0003D43C2F8B0500A68092A8A6829D3B2F1C8
:1008C000004F01D02AB109E00268556945F00045A2
:1008D00003E00268556925F0004555610268976993
:1008E00093FAA3F80D78B8FA88F8093D05FB08F8E3
:1008F00006FA08F627EA06068F6893FAA3F3B3FA16
:1009000083F327F000476B4307FA03F33343936104
:1009100028E0B2F1004F01D02AB109E00268556920
:1009200045F0004503E00268556925F00045556132
:100930000268576993FAA3F80D78B8FA88F86D1C25
:1009400005FB08F806FA08F627EA06068F6893FA08
:10095000A3F3B3FA83F327F000476B4307FA03F3DB
:10096000334353610D685C4A112D08D0122D0BD012
:10097000002D04BF916811F4800F09D05BE09168ED
:1009800011F4000F57D103E0916811F0807F52D12C
:100990000368996801F00301012903D1196811F076
:1009A000010F42D14D498B4216D1D1F8086106F0B2
:1009B0000306012E04D1D1F8006116F0010F34D1E5
:1009C000D1F8086206F00306012E3BD1D1F800628F
:1009D00016F0010F29D135E0414EB3428E6806F082
:1009E000030611D1012E03D10E6816F0010F1CD1A0
:1009F000D1F8086206F00306012E0BD1D1F800628F
:100A000016F0010F11D105E0012E03D10E6816F08A
:100A1000010F0AD1D1F8086106F00306012E11D1A9
:100A2000D1F8006116F0010F0CD0C16D41F020012A
:100A3000C1654FF0010C80F8584004B06046BDE835
:100A4000F0077047274E112D0AD0122D35D0002DFA
:100A500002BF8B42916841F48001ECD19160EAE7DA
:100A60008B4218BFB342E6D1916841F40001916016
:100A70001D491E4A0968B1FBF2F1C1EB0111C90021
:100A800002910091D7D0B1F1004F1ED20029D8BFFA
:100A9000002105DD11F0010102D0029A521E0292DE
:100AA000009A491C531C9942C5DA029A891C521EAD
:100AB000521E02929942F8DBBDE78B4212BFB3424D
:100AC000916841F08071B6D1C8E70299491E029140
:100AD000FCD1B0E700F0FF03000304500000045015
:100AE00000010450000204505000002080841E00C9
:100AF000704770477047000070B584B04FF0000534
:100B000004002E46029502BF012004B070BDE06DC6
:100B100028B9204600F044F9266684F85860206819
:100B2000816811F0005F03D0816821F0005181607D
:100B30002068816811F0805F28D1816841F0805180
:100B40008160914891490068B0FBF1F000EB8000B2
:100B500040000290009019D0B0F1004F80F00E815B
:100B60000028D8BF002005DD10F0010002D0029956
:100B7000491E02910099401C491C884206DA029ADB
:100B8000801C521E521E02928842F8DB2068816847
:100B900011F0805F08D1E16D41F01001E165216E37
:100BA00041F0010121660125E16D11F0100F04BF34
:100BB000816811F0040F07D0E06D40F01000E0658F
:100BC000012504B0284670BDE16D41F00201E165E8
:100BD0006F4A816801F00301012903D1016811F016
:100BE000010F48D16B49884216D1D1F8080100F0B5
:100BF0000300012804D1D1F8000110F0010F3AD10F
:100C0000D1F8080200F0030001282ED1D1F800022B
:100C100010F0010F2FD128E05F4B9842886800F058
:100C2000030011D1012803D1086810F0010F22D16F
:100C3000D1F8080200F0030001280BD1D1F800021E
:100C400010F0010F17D105E0012803D1086810F05A
:100C5000010F10D1D1F8080100F00300012804D1E0
:100C6000D1F8000110F0010F05D19068616820F4FF
:100C70007C1008439060E168A06B4FF40053084378
:100C800093FAA3F3E269B3FA83F3A1689A4011439C
:100C900008434FF4803292FAA2F2616AB2FA82F209
:100CA00001FA02F21043012909D14FF46022A16A2E
:100CB00092FAA2F2B2FA82F2491E91400843E26A25
:100CC000012A1FBF216B0029114308432168CA680C
:100CD000324B02EA030242EA0000C86020688168E1
:100CE00011F00C0F26D14FF4804292FAA2F2A169C2
:100CF000B2FA82F201FA02F14FF0020393FAA3F37F
:100D0000626BB3FA83F302FA03F241EA0201226D45
:100D100041EA0201C26822F0060222F4804242EA5D
:100D20000101C160E06B01280CD02068016921F04D
:100D300001010161206901282068016B21F00F0188
:100D400014D110E0D4E910010843D4E91212114380
:100D500001432068026922F0FD0222F4E06211439F
:100D600041F00101E5E7226A521E11430163E06D83
:100D700020F0020040F00100E06522E70298401EEA
:100D80000290FCD102E700005000002080841E0089
:100D900000030450000004500001045007C0F0FF9D
:100DA00038B505460068A0F1A041B1F5802118BF13
:100DB00038BD1148C16C41F40051C164C06C104C85
:100DC00000F4005000900D480021C4E90001A1602A
:100DD0008015E160C4E904108000C4E906018000C8
:100DE0002062204600F02AF9002818BFFFF715FB03
:100DF0006C65A56238BD000000100240080002408A
:100E0000700100202DE9F0470446006889469046AD
:100E1000816811F0040F18BF022602D03046BDE8E9
:100E2000F08794F85810012904BF0220BDE8F0872C
:100E30000121364D002784F85810A8421CBF3449C0
:100E4000884214D1D5F8080310F01F0F0FD0D5F841
:100E5000080300F01F00052809D0D5F8080300F0AA
:100E60001F0009281CBF012684F85870D6D12046DF
:100E7000FFF78DFA060018BF84F85870CED1E06DE8
:100E800010F4805F08BF276603D0206E20F00600B4
:100E90002066E06D20F0010020F4606040F4807076
:100EA000E0652068A8421FBF1A498842D5F80803A8
:100EB00010F01F0F03D1E06D20F48010E065616D2C
:100EC0001548C862616D15480863616D1448486330
:100ED00021684FF01C0008602068416841F0100153
:100EE00041602068C16841F00101C160206843464B
:100EF00000F140014A46606D00F020F984F8587016
:100F00002068816841F00401816087E70000045097
:100F10000001045000020450F90200088503000893
:100F20006B03000810B590F825100024022903D0A7
:100F30000421C163012419E001680A6822F00E024D
:100F40000A6001680A6822F001020A6090F84420F1
:100F5000036C012101FA02F25A6080F82510002189
:100F600080F82410816B002918BF8847204610BDE7
:100F7000F0B4016CD1F800C001680B68446C042225
:100F800002FA04F515EA0C0F18BF13F0040F12D083
:100F90000B6813F0200F03D10B6823F004030B60E0
:100FA00090F8441002FA01F1026C5160016B0029C3
:100FB00042D1F0BC7047022606FA04F212EA0C0F86
:100FC0004FF000054FF0010218BF13F0020F15D0CB
:100FD0000B6813F0200F05D10B6823F00A030B6098
:100FE00080F8252090F84410026C06FA01F1516057
:100FF00080F82450C16AF9B9F0BC7047082606FA97
:1010000004F414EA0C0F12BF13F0080FF0BC704781
:101010000B6823F00E030B6090F84410036C02FA87
:1010200001F15960C26380F8252080F82450416B9B
:10103000002904BFF0BC7047F0BC0847002804BF7B
:101040000120704730B40168354C364A364BD0F831
:1010500008C0A14208D2354C0C44A2FB044212093C
:101060009200C0E9103208E0314C0C44A2FB04426B
:101070001209920042642F4A0264022280F825205D
:101080000A68C4686FF30D124CEA040CD0E90445F9
:101090002C434CEA040C84694CEA040CC4694CEA05
:1010A000040C046A4CEA040C4CEA02020A608168EF
:1010B000B1F5804F26D0016C0F22994212D1D3F89E
:1010C000A81090F844C002FA0CF29143C3F8A8109B
:1010D00090F8442041689140D3F8A8201143C3F808
:1010E000A8100FE014490B6890F844C002FA0CF203
:1010F00023EA02020A6090F8443042689A400B6882
:101100001A430A600021C162016341638163C163C4
:10111000012280F8252080F8241030BC0846704752
:1011200008040240CDCCCCCC00000240F8FFFDBF4B
:10113000F8FBFDBF00040240A804024070B490F820
:1011400024404FF0000C012C02BF022070BC7047FD
:10115000012480F8244090F825600025012E1CBF52
:1011600080F824504FF0020C02D070BC60467047EB
:10117000022680F82560C56305682E6826F0010602
:101180002E6090F84450AC40056C6C60046863605D
:101190008368102B036803BF9A600268D16099606E
:1011A0001CBF0168CA60016B002901680A6818BF8A
:1011B00042F00E0206D122F004020A6001680A68B9
:1011C00042F00A020A600068016841F00101016012
:1011D000CBE770B5044600F03BF90546B4F1FF3F9C
:1011E00018BF641C00F034F9401BA042FAD370BD54
:1011F0000B680022002B08BF70472DE9F84F884E7E
:10120000DFF820E201274FF0030A4FF00F0800BF7C
:101210000B6807FA02F52B4000F0FB80D1F804C000
:10122000BCF1020F18BFBCF1120F15D14FEAD20C5E
:1012300000EB8C04D4F820904FEA427C4FEADC6C3F
:1012400008FA0CFB29EA0B09D1F810B00BFA0CFCD8
:101250004CEA090CC4F820C0D0F800904FEA420CC8
:1012600091F804B00AFA0CF40BF0030B29EA040914
:101270000BFA0CFB4BEA0909C0F80090D1F8049076
:10128000B9F1010F18BFB9F1020F05D0B9F1110F73
:1012900018BFB9F1120F18D1D0F80890D1F80CB0DE
:1012A00029EA04090BFA0CFB4BEA0909C0F808907B
:1012B000D0F8049029EA050591F80490C9F30019C3
:1012C00009FA02F949EA05054560C56825EA0404FA
:1012D0008D6805FA0CFC4CEA040CC0F80CC0D1F87F
:1012E00004C01CF0805F7CD0D6F860C04CF0010CCC
:1012F000C6F860C0D6F860C00CF0010CCDF800C094
:1013000022F0030C0CF1804404F58034A5684FEA08
:10131000827C4FEA1C7C08FA0CF925EA0905B0F139
:10132000904F08BF4FF0000938D0A0F19049B9F5AF
:10133000806908BF4FF0010930D0A0F19049B9F59C
:10134000006908BF4FF0020928D0A0F19049B9F513
:10135000406908BF4FF0030920D0A0F19049B9F5CA
:10136000805908BF4FF0040918D0A0F19049B9F591
:10137000A05908BF4FF0050910D0A0F19049B9F568
:10138000C05908BF4FF0060908D0A0F19049B9F53F
:10139000E0590CBF4FF007094FF0080909FA0CFC9F
:1013A0004CEA050CC4F808C0DEF800C04C682CEA12
:1013B000030C14F4803F18BF4CEA030CCEF800C0B5
:1013C000194CD4F800C04D682CEA030C15F4003F0A
:1013D00018BF4CEA030CC4F800C0144CD4F800C089
:1013E00000E016E04D682CEA030C15F4801F18BFCE
:1013F0004CEA030CC4F800C00D4CD4F800C04D6892
:101400002CEA030C15F4001F18BF4CEA030CC4F8B7
:1014100000C00B68521CD3407FF4FAAE00F00AB84B
:10142000001002400004014004040140080401408F
:101430000C04014018BCBDE8E08F0069084018BFEB
:1014400001207047002A14BF81618162704700004B
:1014500001480068704700004C000020074981B037
:101460000A6E42F001020A66096E01F00101009164
:1014700003494A681043486001B0704700100240B9
:101480000000014002480168491C016070470000EB
:101490004C00002010B5032000F09AF8002000F066
:1014A00005F800F017F8002010BD000010B5044644
:1014B00007484FF47A720068B0FBF2F001F02EF9A1
:1014C00000222146501E00F051F8002010BD0000FF
:1014D000500000201E4808B5016E41F00101016670
:1014E000016E01F001010091816D41F08051816533
:1014F000806D00F080500090032000F069F8002219
:1015000011466FF00B0000F031F8002211466FF029
:101510000A0000F02BF8002211466FF0090000F0DD
:1015200025F800221146501F00F020F80022114635
:10153000101F00F01BF800221146901E00F016F854
:101540000022BDE808401146501E00F00FB8000010
:101550000010024000F01F01012202FA01F14009CF
:10156000800000F1E020C0F800117047174B10B464
:101570001B68C3F30223C3F1070CBCF1040F88BF3F
:101580004FF0040C1C1D072C34BF0023DB1E01246C
:1015900004FA0CFCACF1010C0CEA0101994004FACC
:1015A00003F35B1E1A40114300284FEA0111A1BF4B
:1015B00000F1E02080F8001410BC704700F00F002C
:1015C00000F1E02080F8141D10BC70470CED00E025
:1015D000074900F007000A684FF6FF031A4042EA85
:1015E000002040F0FD7040F080600860704700000F
:1015F0000CED00E0BFF34F8F05480168054A01F488
:10160000E06111430160BFF34F8F00BFFDE70000B1
:101610000CED00E00400FA051749B0F5007F0868FA
:1016200000F4C0600AD0B0F5806F05D0086820F4DF
:10163000C06040F48060086000207047B0F5007F13
:10164000FAD0086820F4C06040F4007008600B48CD
:101650000B4A0068B0FBF2F03222504300281EBF54
:101660004A6912F4806F401EF8D1486910F4806F07
:1016700018BF0320E0D070470070004050000020E9
:1016800040420F000248416841F4007141607047D8
:10169000007000400248006800F4C060704700001D
:1016A000007000402DE9F84F0446002700883E46B0
:1016B00010F4006FFE4D1FD0A06E80B1B0F5800F0A
:1016C00012D0B0F5000F05D0B0F5400F18BF0127BC
:1016D00024D010E0E86840F48030E8601EE000218B
:1016E000201D01F059FE04E0002104F1200001F06A
:1016F00023FF070012D03E46208810F4805F28D0D8
:10170000E06EC8B1B0F1807F1BD0B0F1007F0ED089
:10171000B0F1407F18BF012719D019E0D5F8880033
:10172000A16E20F440000843C5F88800E4E7E868AB
:1017300040F48030E8600AE00021201D01F02CFE1A
:1017400004E0002104F1200001F0F6FE07465FB13D
:101750003E46206810F4003F41D0A86D4FF00009CC
:1017600010F0805F09D012E0D5F88800E16E20F01B
:1017700040700843C5F88800EBE7A86D40F0805042
:10178000A865A86D4FF0010900F080500090DFF8C7
:101790002483D8F8000040F48070C8F80000FFF7F8
:1017A00057FE8246D8F8000010F4807F0DD100BFAC
:1017B000FFF74EFEA0EB0A00022801D9032706E03E
:1017C000D8F8000010F4807FF2D0002F7ED03E4683
:1017D000B9F1000F03D0A86D20F08050A8652078E3
:1017E00010F0010F07D0D5F88800A16B20F003009E
:1017F0000843C5F88800207810F0020F07D0D5F80C
:101800008800E16B20F00C000843C5F888002078C0
:1018100010F0040F07D0D5F88800216C20F03000BC
:101820000843C5F88800207810F0080F07D0D5F8D5
:101830008800616C20F0C0000843C5F8880020785B
:1018400010F0100F07D0D5F88800A16C20F440707C
:101850000843C5F88800207810F0200F07D0D5F88D
:101860008800E16C20F440600843C5F888002088B7
:1018700010F4007F07D0D5F88800216E20F44020B6
:101880000843C5F88800208810F4806F07D0D5F889
:101890008800616E20F440100843C5F88800207865
:1018A00010F0400F07D0D5F88800216D20F440508B
:1018B0000843C5F88800207810F0800F09D0D5F8CB
:1018C0008800616D20F44040084300E02DE0C5F839
:1018D0008800208810F4807F07D0D5F88800A16D9B
:1018E00020F440300843C5F88800206810F4801FB9
:1018F00007D0D5F89C00E16D20F003000843C5F83F
:101900009C00208810F4005F5AD0D5F88800216F21
:1019100020F040600843C5F88800206FB0F1006FE8
:1019200042D0B0F1806F44D04AE0D5F8900010F476
:1019300040701CBFD4F88810814211D0D5F89000B7
:10194000D5F8901020F4407041F48031C5F8901023
:10195000D5F8901021F48031C5F89010C5F89000AA
:1019600010F0010F16D0FFF773FD0746D5F8900071
:1019700010F0020F08BF41F288380BD1FFF768FD65
:10198000C01B404501D9032622E7D5F8900010F08E
:10199000020FF3D0D5F89000D4F8881020F44070EE
:1019A0000843C5F8900013E7E86840F48010E86049
:1019B00006E00121201D01F0EFFC002818BF0646BB
:1019C000206810F4002F1BD0D5F88800616F20F03C
:1019D00040600843C5F88800606FB0F1006F03D025
:1019E000B0F1806F05D00BE0E86840F48010E8604B
:1019F00006E00121201D01F0CFFC002818BF06469B
:101A0000206810F4802F1BD0D5F88800A16F20F03B
:101A100040600843C5F88800A06FB0F1006F03D0A4
:101A2000B0F1806F05D00BE0E86840F48010E8600A
:101A300006E00121201D01F0AFFC002818BF06467A
:101A4000208810F4804F1CD0D5F88800E16F20F07A
:101A500040500843C5F88800E06FB0F1805F03D0C4
:101A6000B0F1005F06D00CE00221201D01F094FCD3
:101A700030B906E0022104F1200001F05DFD00B163
:101A80000646208810F4004F08D0D5F88800D4F816
:101A9000801020F080400843C5F88800206810F4CA
:101AA000803F0ED0D5F8880020F0004004E0000010
:101AB0000010024000700040D4F884100843C5F8BC
:101AC0008800304600F000B818BCBDE8E08F000088
:101AD0002DE9F047644F06468846386800F0070055
:101AE00040450AD2386820F0070040EA0800386014
:101AF000386800F0070040453FD130785B4D10F06A
:101B0000020F05D0A868B16820F0F0000843A86073
:101B1000307810F0010F68D07068022824D00328B4
:101B200027D0296850B311F4806F6ED0A96821F0D6
:101B300003010843A860FFF78BFC0446706841F27C
:101B4000883902281ED003282DD00028A86800F06C
:101B50000C0039D0042848D0FFF77AFC001B484518
:101B60003ED90320BDE8F087296811F4003FDDD19C
:101B70004BE0296811F0007FD8D146E011F0020F48
:101B8000D4D142E0A86800F00C0008282DD000BF96
:101B9000FFF75EFC001B4845E3D8A86800F00C0086
:101BA0000828F5D121E0A8684FF00C0A3AEA0000B5
:101BB0001BD000BFFFF74CFC001B4845D1D8A868DC
:101BC0003AEA0000F6D110E078B100BFFFF740FC20
:101BD000001B4845C5D8A86810F00C0FF6D104E0EA
:101BE000A86800F00C000428B6D1386800F007009F
:101BF00040450DD9386820F0070040EA08003860F9
:101C0000386800F00700404502D00120BDE8F087A9
:101C1000307810F0040F05D0A868F16820F4E06077
:101C20000843A860307810F0080F06D0A868316922
:101C300020F4605040EAC100A86000F053F8A968A1
:101C4000F02292FAA2F201F0F001B2FA82F2D1404F
:101C5000074A515CC840074908600020FFF726FC8E
:101C60000020BDE8F0870000002002400010024084
:101C700078660008500000200148006870470000A6
:101C80005000002008480949006889684FF4E06264
:101C900092FAA2F201F4E061B2FA82F2D140044A6F
:101CA000515CC84070470000500000200010024006
:101CB000B866000808480949006889684FF460520E
:101CC00092FAA2F201F46051B2FA82F2D140044ACF
:101CD000515CC840704700005000002000100240D6
:101CE000B8660008474930B400228B68104613F0EC
:101CF0000C0F454B4FF00C044FEA630C16D08D6867
:101D000034EA050504D1CD6805F00305012D0DD099
:101D10008D6805F00C05042D08BF18461BD08D6892
:101D200005F00C05082D08BF604614E00A6812F0A3
:101D3000080F43D00A68F02595FAA5F502F0F002E5
:101D4000B5FA85F5EA40314D55F822208D6815F039
:101D50000C0F08BF10468D68AC431CBF30BC7047E9
:101D6000C86800F00305C868702494FAA4F400F071
:101D70007000B4FA84F4E040401C4FF4FE44022D9D
:101D800028D0032D32D0B2FBF0F0CA6894FAA4F345
:101D900002F4FE42B3FA83F3DA405043C9684FF0CD
:101DA000C06292FAA2F201F0C061B2FA82F2D140AE
:101DB000491C4900B0FBF1F030BC7047D1F89420C9
:101DC0004FF4706595FAA5F502F47062B5FA85F5E1
:101DD000EA40B8E7B3FBF0F0CA6894FAA4F302F45F
:101DE000FE42B3FA83F3DA405043D7E7BCFBF0F08E
:101DF000CA6894FAA4F302F4FE42B3FA83F3DA4019
:101E00005043CBE7001002400024F400886600082D
:101E10002DE9F84304460078FF4D10F0100F00F054
:101E20000D81A86810F00C0F0FD0A0690028286859
:101E300000F0F08040F001002860FFF709FB064643
:101E4000286810F0020F7CD0D2E0286810F0020F52
:101E500002D0A069002875D0D4F8208028684FF0FF
:101E6000F00910F0080F19BF286800F0F000D5F84D
:101E7000940009EA1010E94F804549D9A86D002661
:101E800010F0805F02D0FFF705FC0DE0A86D40F078
:101E90008050A865A86D00F080500090FFF7FAFB15
:101EA000A96D21F08051A965B0F5007F09D0B8F186
:101EB000800F88BF03260FD80AD100BF4FF002065B
:101EC0000AE0B8F1800F07D9B8F1A00F03D9F5E700
:101ED000B8F1700F00D10126386820F007003043B8
:101EE0003860386800F00700B0425FD1286840F0E1
:101EF000080028602868216A20F0F0000843286064
:101F00006868E16920F47F4040EA0120686050E0A1
:101F1000286840F0080028602868216A20F0F00056
:101F2000084328606868E16920F47F4040EA0120A6
:101F30006860D4F82080A86D002610F0805F05D07E
:101F400001E04BE032E0FFF7A5FB0DE0A86D40F0AB
:101F50008050A865A86D00F080500090FFF79AFBB4
:101F6000A96D21F08051A965B0F5007F09D0B8F1C5
:101F7000800F88BF03260FD80AD100BF4FF002069A
:101F80000AE0B8F1800F07D9B8F1A00F03D9F5E73F
:101F9000B8F1700F00D10126386820F007003043F7
:101FA0003860386800F00700B04202D00120BDE878
:101FB000F883FFF797FE0246A86899FAA9F100F0A6
:101FC000F000B1FA81F1C8409549085C954922FAC0
:101FD00000F008600020FFF769FA2FE0FFF738FAF9
:101FE000801B022800F25B82286810F0020FF5D0F7
:101FF000286840F0080028602868216A20F0F00076
:10200000084328606868E16920F47F4040EA0120C5
:10201000686013E020F001002860FFF719FA064617
:10202000286810F0020F09D0FFF712FA801B02286F
:1020300000F23582286810F0020FF5D120784FF0B9
:102040000C0610F0010F55D0A86800F00C0008280D
:1020500026D0A86836EA000004D1E868032131EAF6
:1020600000001DD06068B0F5803F22D0B0F5A02FF1
:1020700028680CBF40F4802020F480302860286855
:102080000CBF40F4803020F480202860606800B3EA
:10209000FFF7DEF90746286810F4003F0ED029E06C
:1020A000286810F4003F25D0606800283FF47EAF18
:1020B00020E0286840F480302860E7E7FFF7C8F99F
:1020C000C01B642800F2EB81286810F4003FF5D0B3
:1020D00010E0FFF7BDF90746286810F4003F09D06B
:1020E000FFF7B6F9C01B642800F2D981286810F404
:1020F000003FF5D1207810F0020F5CD0A8684FF0B7
:10210000FE4700F00C00042817D0A86836EA00004B
:1021100004D1E86800F0030002280ED0E06800282F
:10212000286835D040F480702860FFF791F9804628
:10213000286810F4806F14D01EE0286810F4806FB7
:1021400003D0E06800283FF431AF6868216920F0CF
:10215000FE4297FAA7F0B0FA80F001FA00F01043BF
:1021600014E0FFF775F9A0EB0800022800F2978150
:10217000286810F4806FF4D0686897FAA7F2216994
:10218000B2FA82F220F0FE4091400843686012E00B
:1021900020F480702860FFF75BF90746286810F488
:1021A000806F08D0FFF754F9C01B02287DD828683B
:1021B00010F4806FF6D1207810F0080F3BD06069E2
:1021C0000028D5F8940016D040F00100C5F894001E
:1021D000FFF73EF90746D5F8940010F0020F2AD118
:1021E000FFF736F9C01B02285FD8D5F8940010F02D
:1021F000020FF5D01FE020F00100C5F89400FFF7B2
:1022000027F90746D5F8940010F0020F13D000BF4D
:10221000FFF71EF9C01B07E000100240002002403B
:10222000786600085000002002283ED8D5F89400B7
:1022300010F0020FECD1207810F0040F7DD0A86DC3
:102240004FF0000810F0805F09D1A86D40F0805079
:10225000A865A86D4FF0010800F080500090DFF8ED
:102260005492D9F8000010F4807F17D1D9F80000FB
:1022700040F48070C9F80000FFF7EAF80746D9F883
:10228000000010F4807F09D1FFF7E2F8C01B02289C
:102290000BD8D9F8000010F4807FF5D0A068012891
:1022A00021D00528D5F8900000E0A6E00CBF40F052
:1022B000040020F00100C5F89000D5F890000CBF94
:1022C00040F0010020F00400C5F89000A06841F241
:1022D0008839D0B1FFF7BCF80746D5F8900010F068
:1022E000020F07D024E0D5F8900040F00100C5F8B7
:1022F0009000EBE7FFF7ACF8C01B48457DD8D5F858
:10230000900010F0020FF5D012E0FFF7A1F8074699
:10231000D5F8900010F0020F0AD000BFFFF798F830
:10232000C01B484569D8D5F8900010F0020FF5D1D0
:10233000B8F1000F05D0A86D00E002E020F0805059
:10234000A865207810F0200F32D0606A0028D5F8F8
:10235000980016D040F00100C5F89800FFF778F813
:102360000746D5F8980010F0020F21D1FFF770F85A
:10237000C01B022841D8D5F8980010F0020FF5D004
:1023800016E020F00100C5F89800FFF761F8074655
:10239000D5F8980010F0020F0AD000BFFFF758F8E8
:1023A000C01B02287BD8D5F8980010F0020FF5D199
:1023B000A06AE8B3A96836EA01013FF4F7AD022844
:1023C000286820F08070286008D0286810F0006F1E
:1023D00004BF286810F0005F4AD04DE0FFF738F8DE
:1023E0000646286810F0007F0BD000BFFFF730F8DA
:1023F000801B022853D8286800E050E010F0007FCE
:10240000F4D1206BE16A000110380143A08F2A4A01
:10241000400802EB4050626B40EA0220014394F80E
:1024200040004FF07E42400802EB4060084300E06D
:102430003CE094F8381040EAC160E860286840F059
:1024400080702860E86840F08070E860FFF700F86E
:102450000446286810F0007F28D100BFFEF7F8FF7F
:10246000001B02281BD8286810F0007FF6D01DE062
:10247000E86820F00300E860E86820F4881020F0A5
:102480008070E860FEF7E4FF0446286810F0007FE3
:102490000CD000BFFEF7DCFF001B022802D903208E
:1024A000BDE8F883286810F0007FF3D10020BDE874
:1024B000F8830000007000400000E0FF7047002833
:1024C00004BF0120704770B500250446856290F86E
:1024D0005D0020B984F85C50204600F04BF80222E1
:1024E00084F85D202068016821F040010160E06807
:1024F000B0F5E06F8CBF00214FF48051B0F5706FE4
:102500001CBFB0F5E06FA5624FF00103D4F830C0F6
:10251000BCF1000F27D0D4E901021043D4E9042C08
:1025200042EA0C021043228B02F400721043E2696B
:102530001043226A1043A26A104322681060626B43
:10254000606AD4F818C010430426E26806EA1C4CFE
:1025500042EA0C021043084321684860256684F86B
:102560005D30002070BDB0F5E06F8CBF2263236347
:10257000D1E7000070B50646006886B0A0F1804142
:10258000B1F598311CBF06B070BD1848016E41F41A
:1025900080510166006E002500F480500590822075
:1025A00000900220CDE9010503200390052004904E
:1025B00069464FF09040FEF71BFE0E4C0C48206021
:1025C000012060601020C4E902058020C4E90405F0
:1025D000A561E56120462562FEF730FD002818BFA1
:1025E000FDF71BFF7465A66206B070BD00100240C7
:1025F00030000240BC00002070B5044690F85C003A
:102600000026012804BF022070BD012084F85C0070
:1026100094F85D300025012B18BF022666D10029F1
:1026200014BF002A012661D04FF0030384F85D3007
:102630002566A163A287E28725642565E564A4F881
:102640004450A4F84650A168B1F5004F04D1216868
:102650000A6842F480420A60626D26491163626D25
:102660002549D162626D25495163616D8D63216891
:102670004A6822F480424A60E168B1F5E06F11D8FF
:10268000616D8969B1F5806F0CD1E18F11F0010F97
:1026900016D021684A6842F480424A60E18F00EB1C
:1026A0005100E087E38F2068A16B00F10C02606DA0
:1026B000FEF744FD2068016811F0400F0CD107E0DF
:1026C0002068416821F480414160E08F4008E8E7DC
:1026D000016841F0400101602068416841F020013B
:1026E00041602068416841F00201416084F85C501B
:1026F000304670BDC3360008CD360008A13600084C
:10270000704770474FF0E021042808690CBF40F083
:10271000040020F00400086170477047411EB1F1C9
:10272000807F24BF012070474FF0E0204161054ABF
:10273000F02182F8141D0021816107210161002030
:10274000704700000FE000E010B5FFF7E6FF10BD96
:102750007047704790F83820012A04BF0220704764
:1027600010B4012280F8382002685368D2F808C0FB
:10277000A2F18044B4F596341CBFA2F18044B4F5B4
:102780009A3403D14C6823F4700323430C6823F07C
:102790007003896823432CF0800C41EA0C015360DC
:1027A00002689160002180F8381010BC084670471C
:1027B000002804BF0120704710B5044690F8390086
:1027C00028B9002084F83800204600F00DF80220D7
:1027D00084F83900211D206801F0EAF8012084F80E
:1027E0003900002010BD000008B501681748A1F1AC
:1027F0008042B2F5805217D0A1F18042B2F5A052CA
:1028000018BF08BD816D41F020018165806D0022F7
:1028100000F02000009003213720FEF7A7FEBDE85E
:1028200008403720FEF796BE816D41F010018165AA
:10283000806D002200F01000009002213620FEF78B
:1028400095FEBDE808403620FEF784BE0010024029
:102850000168CA6842F00102CA600068016841F07C
:102860000101016000207047704770B504460068A0
:1028700001694FF0000511F0020F1CBFC16811F093
:10288000020F13D06FF00201016101202076206851
:10289000806910F0030F204602D0FFF7E5FF04E047
:1028A00000F099F8204600F097F825762068016935
:1028B00011F0040F1CBFC16811F0040F13D06FF0AA
:1028C00004010161022020762068806910F4407FB5
:1028D000204602D0FFF7C8FF04E000F07CF8204655
:1028E00000F07AF825762068016911F0080F1CBF06
:1028F000C16811F0080F13D06FF0080101610420C6
:1029000020762068C06910F0030F204602D0FFF740
:10291000ABFF04E000F05FF8204600F05DF825769C
:102920002068016911F0100F1CBFC16811F0100F71
:1029300013D06FF010010161082020762068C06973
:1029400010F4407F204602D0FFF78EFF04E000F035
:1029500042F8204600F040F825762068016911F021
:10296000010F1CBFC16811F0010F05D06FF001010C
:102970000161204600F032F82068016911F0800FF3
:102980001CBFC16811F0800F05D06FF0800101619C
:102990002046FFF7DDFE2068016911F0400F1CBFE3
:1029A000C16811F0400F05D06FF040010161204671
:1029B00000F02CF82068016911F0200F1ABFC168DF
:1029C00011F0200F70BD6FF0200101612046BDE8BD
:1029D0007040FFF7BEBE7047704700000068A0F16E
:1029E0008041B1F5805103D106494A68521C4A60C2
:1029F000A0F18041B1F5A05118BF7047024803F023
:102A0000BDBA0000140000200C0000207047704781
:102A10007047000070B501680446C8690A6810F084
:102A20000F0F4FF0200557D08B6802F4907603F01B
:102A3000010C5CEA06067DD010F0010F18BF12F4FD
:102A4000807F05D001260E62E16E41F00101E16652
:102A500010F0020F18BF13F0010F06D026680221F4
:102A60003162E16E41F00401E16610F0040F18BF1D
:102A700013F0010F06D0236804211962E16E41F0C2
:102A80000201E16610F0080F1CBF02F0200151EABC
:102A90000C0106D0236808211962E16E41F008019B
:102AA000E166E16E002908BF70BD10F0200F18BF6D
:102AB00012F0200F0BD0B4F85C1094F86A20204676
:102AC000222A60D02068018B41F008010183E06E6A
:102AD00010F0080F7ED188E010F0200F14BF12F024
:102AE000200F8B683CD0B4F85C2094F86A30204604
:102AF000222B04D0088B40F00800088370BD898C1D
:102B00008368B3F5805F04BF0369002B21D001EA1D
:102B10000202416D01F1010343650A70B0F85A10D9
:102B2000A1F101010904090CA0F85A1018BF70BDE9
:102B3000016800E014E00A6822F490720A600168FB
:102B40008A6822F001028A6080F86A5000F09CF9DD
:102B500070BD436D11401980416D891C4165DDE7F1
:102B60008B6810F4801F18BF13F4800F71D04FF4DE
:102B70008010086284F8695084F86A502046BDE8E5
:102B80007040FFF744BF0268928C8368B3F5805FA2
:102B900004BF0369002B21D002EA0102416D01F15B
:102BA0000103436581F80020B0F85A10A1F101013A
:102BB0000904090CA0F85A1089D101680A6822F4A6
:102BC00090720A6001688A6822F001028A6080F8C7
:102BD0006A5000E00EE000F057F978E7436D1140CD
:102BE0001980416D891C4165DEE72068806810F01E
:102BF000400F27D02068016821F49071016020689F
:102C0000816821F00101816084F86A502068816840
:102C100011F0400F12D0816821F040018160606E98
:102C200060B12F498163606EFEF77CF9002808BF10
:102C300070BD606E816BBDE8704008472046FFF7AD
:102C4000E7FE70BD2046FFF7E3FE0020E06670BDA2
:102C5000FFE710F0800F18BF12F0800F30D094F80B
:102C60006900212818BF70BDB4F85200A8B1A0684F
:102C7000B0F5805F04BF20690028E06C17D000F138
:102C80000101E16421680078A1F82800B4F852003D
:102C9000A0F10100A4F8520070BD086820F0800087
:102CA00008602068016841F04001016070BD008843
:102CB000C0F308000885E06C00F10200E064E5E77D
:102CC00010F0400F14BF12F0400F70BD20460A688C
:102CD00022F040020A6084F8695000F07AF970BD71
:102CE000A73B0008002804BF0120704710B5044628
:102CF00090F8690028B9002084F86800204600F0A8
:102D000029F8242084F869002068016821F0010175
:102D10000160204600F052FF012808BF10BD606A24
:102D200000281CBF204600F0A1FE2068416821F465
:102D3000904141602068816821F02A01816020680B
:102D4000016841F0010101602046BDE8104000F03B
:102D5000FABE000010B5D0F800C0224802210122BE
:102D60000323ACF1804486B0B4F5004424D0ACF128
:102D70008044B4F590441CBF06B010BDD0F858C0D4
:102D80004CF4802CC0F858C0806D00F48020059071
:102D90004FF440708DE80F000720049069461248F8
:102DA000FEF726FA002201212720FEF7DFFB27206D
:102DB000FEF7D0FB06B010BDD0F85CC04CF0010CA3
:102DC000C0F85CC0C06D00F0010005904FF4C07009
:102DD0008DE80F000820049069460448FEF708FAC1
:102DE00006B010BD00100240000C0048001800485A
:102DF00090F86A30202B44D1002912BF002A01200C
:102E0000704790F86830012B3BD0012380F8683080
:102E10004165A0F85820A0F85A208168FF22B1F53A
:102E2000805F05D07F2351B1B1F1805F0CD012E0FB
:102E30000169002908BF40F2FF1102D109E00169D0
:102E4000E1B9A0F85C2006E00169002918BF3F2124
:102E500014D0A0F85C100021C166222280F86A20FC
:102E600080F8681001688A6842F001028A60006890
:102E7000016841F49071016000207047A0F85C3057
:102E8000E9E702207047000010B50068A0F180411A
:102E9000B1F5904118BF10BD0121054801F0C0FEF9
:102EA000BDE81040012202490248FFF7A1BF00001F
:102EB00014000020280200202DE9F84F044690F865
:102EC00069001D4617460E4620287CD1002E12BFF1
:102ED000002F012000F07AB894F86800012872D021
:102EE000012084F868004FF00009C4F86C9021209C
:102EF00084F86900FEF7ACFAA4F850708046A4F894
:102F00005270B4F852004FF0200A00283ED000BFA3
:102F1000B4F85200401EA4F8520020688027C0690F
:102F200037EA000022D000BFB5F1FF3F19D02DB124
:102F3000FEF78EFAA0EB0801A94212D920680168B9
:102F400021F4D07101602068816821F00101816065
:102F500084F869A084F86AA084F86890032000F0DF
:102F600035B82068C06937EA0000DDD1A068B0F547
:102F7000805F04BF206900281ED0216816F8010B6D
:102F8000A1F82800B4F852000028C1D143464FF000
:102F900000024FF040012046009500F0A7FF0028F6
:102FA0001CBF032000F012B884F869A084F8689070
:102FB000002000F00BB806E036F8020B2168C0F3E1
:102FC00008000885DEE7022000F000B818BCBDE864
:102FD000E08F7047FEE7000030B51C4889B01A4901
:102FE0000024C0E9001484600421C460C0E90441E5
:102FF0000125C0E90645C0E908548562C0E90B54C3
:10300000C0E90D54C463FDF777FD002818BFFDF734
:1030100004FA06A90D480694FDF700FA002818BF27
:10302000FDF7FBF91120CDE900050220CDE90204EE
:103030000494694605480594FDF77AFA002818BFFC
:10304000FDF7EBF909B030BD000004500401002089
:103050000D4808B5816C41F001018164806C00224B
:1030600000F00100009011460B20FEF77FFA0B20C4
:10307000FEF770FA002211460D20FEF777FABDE840
:1030800008400D20FEF766BA001002402DE9F0431B
:10309000634887B0C16C41F01001C164C16C01F09C
:1030A00010010591C16C41F00401C164C16C01F0D3
:1030B00004010591C16C41F02001C164C16C01F0B3
:1030C00020010591C16C41F08001C164C16C01F027
:1030D00080010591C16C41F00101C164C16C01F036
:1030E00001010591C16C41F00201C164C16C01F0A4
:1030F00002010591C16C41F04001C164C16C01F055
:1031000040010591C16C41F00801C164C06C00F040
:1031100008000590FEF7B6FADFF8088100224FF4A8
:1031200081414046FEF78EF9DFF8FC9000228021B5
:103130004846FEF787F94FF6FF76032500240096F0
:10314000CDE9015469463948FEF752F84FF4005072
:10315000CDE900040227694602974846FEF748F881
:103160004DF67F70CDE90005694602944846FEF7AA
:103170003FF80096CDE9015469462D48FEF738F82E
:103180000B20CDE90005694602942A48FEF730F885
:1031900049F67D70CDE90005694602944FF09040F4
:1031A000FEF726F84BF27F70CDE9000569460294E0
:1031B0004046FEF71DF84FF67F60CDE900056946F1
:1031C00002941D48FEF714F8B802CDE900046946E0
:1031D00002974046FEF70CF84FF481400126CDE9F6
:1031E000000669464046CDE90245FEF701F84FF674
:1031F000FF40CDE90005694602941048FDF7F8FF4D
:103200008020CDE9000669464846CDE90245FDF734
:10321000EFFF7004FEF722F907B0BDE8F08300006D
:103220000010024000040048000800480010004858
:1032300000140048001C004800180048000C00481A
:103240000D4810B50B4901604FF4E1314160002198
:1032500081600C22C160C0E9041281610162416297
:10326000FFF740FD002808BF10BDBDE81040FDF786
:10327000D4B8000000800040B8010020124810B50A
:10328000104901604FF48271416000214FF4E06207
:10329000C0E902124FF400720161C0E90512082270
:1032A000C0E9072107234162C0E90A13C0E90C12F3
:1032B000FFF705F9002808BF10BDBDE81040FDF775
:1032C000ACB80000003001405800002010B50F4895
:1032D00084B00D4901601F210024C0E9011440F2AF
:1032E000E731C160FFF764FA002818BFFDF795F8D1
:1032F0000094694605480294FFF72CFA002818BF8D
:10330000FDF78BF804B010BD00100040D002002083
:1033100010B50F4884B00D4901601F210024C0E999
:10332000011440F2E731C160FFF742FA002818BFEC
:10333000FDF773F80094694605480294FFF70AFA0E
:10334000002818BFFDF769F804B010BD0014004054
:103350000C0300200D4810B50B4901604FF41651C5
:103360004160002181600C22C160C0E904128161CA
:10337000C16101624162FFF7B5FC002808BF10BDC2
:10338000BDE81040FDF749B8004800402802002081
:10339000FEE77047704700002DE9F041654C054697
:1033A0008846E068002610F0030F28684FF070018F
:1033B00013D0E26802F0030282427CD100287AD066
:1033C000E06891FAA1F100F07000B1FA81F1C84013
:1033D0006968401C88422AD06DE0012804D0022888
:1033E00007D003280AD066E0226812F0020F0DD140
:1033F00061E0226812F4806F08D15CE0226812F468
:10340000003F04BF226812F4802F54D0E2686B683A
:1034100091FAA1F1B1FA81F1A3F1010322F0730253
:1034200003FA01F142EA010141EA0000E06020688C
:1034300020F080602060FEF70BF80746206810F04F
:10344000006F08D0FEF704F8C01B022865D820687A
:1034500010F0006FF6D14FF4FE40B8F1000F2CD001
:1034600090FAA0F0AA68B8F1010FB0FA80F04FF01E
:10347000FF3102FA00F038D06A6901EB52014FF0D7
:10348000C06292FAA2F2B2FA82F291400843216934
:1034900021F4FE4121F0C06108432061206840F022
:1034A00080602060FDF7D4FF0746206810F0006FB1
:1034B0002ED038E0FFE7012639E090FAA0F0A968A5
:1034C000B0FA80F001FA00F04FF0784292FAA2F2DE
:1034D000E968B2FA82F291400843216921F4FE4181
:1034E00021F0784108432061D8E72A6901EB5201B5
:1034F0004FF4C00292FAA2F2B2FA82F2914008436B
:10350000216921F4FE4121F4C00108432061C5E78F
:10351000FDF79EFFC01B022801D9032607E02068A3
:1035200010F0006FF4D02069A9690843206130468B
:10353000BDE8F081001002402DE9F041574C0646ED
:103540008846E068002510F0030F30684FF07001E6
:1035500013D0E26802F00302824279D1002877D0CA
:10356000E06891FAA1F100F07000B1FA81F1C84071
:103570007168401C88422AD06AE0012804D00228E1
:1035800007D003280AD063E0226812F0020F0DD1A1
:103590005EE0226812F4806F08D159E0226812F4CC
:1035A000003F04BF226812F4802F51D0E268736894
:1035B00091FAA1F1B1FA81F1A3F1010322F07302B2
:1035C00003FA01F142EA010141EA0000E0602068EB
:1035D00020F080502060FDF73BFF0746206810F088
:1035E000005F08D0FDF734FFC01B022849D82068CF
:1035F00010F0005FF6D14FF4FE4090FAA0F0B168F1
:10360000B8F1000FB0FA80F001FA00F022D0316971
:103610004FF0FF3202EB51014FF0C06292FAA2F27A
:10362000B2FA82F291400843616921F4FE4121F02F
:10363000C06108436061206840F080502060FDF761
:1036400007FF0746206810F0005F15D01FE0FFE776
:10365000012520E0F1684FF4003292FAA2F2090944
:10366000B2FA82F291400843616921F4FE4121F4EB
:10367000003108436061DEE7FDF7EAFEC01B022867
:1036800001D9032507E0206810F0005FF4D06069DD
:103690007169084360612846BDE8F081001002406E
:1036A00010B5806A01684A6822F003024A60016E20
:1036B00041F010010166012180F85D10FEF7FEFE69
:1036C00010BD10B5806AFFF71CF810BD38B505466F
:1036D000846AFDF7BDFE2968096811F0200F24D126
:1036E00021684A6822F020034B6021684A6822F072
:1036F00002034B6002466421204600F01AF818B11C
:10370000206E40F020002066A068002118B92068D3
:10371000C26880680090E187012084F85D00206E17
:1037200018B12046FEF7CAFE38BD2046FEF7E8FF76
:1037300038BDF8B515460E460B46009204460022E9
:103740004FF4C05100F01AF890B93346002280219E
:103750002046009500F060F850B9334600224FF43F
:10376000C0612046009500F009F8002808BFF8BDA8
:10377000206E40F0200020660320F8BDF8B5044616
:103780000068069F1D4680680E46304241D000BF4B
:10379000B6F5C06F05D12068007B8DF800009DF85C
:1037A0000000B5F1FF3F30D025B1FDF751FEC01B41
:1037B000A8422AD32068416821F0E0014160606896
:1037C000B0F5827F0BD1A068B0F5004F18BFB0F5FF
:1037D000806F04D12068016821F040010160A06A77
:1037E000B0F5005F09D12068016821F40051016043
:1037F0002068016841F400510160012084F85D00F7
:10380000002084F85C000320F8BD20688068304206
:10381000BED10020F8BD000070B504460068049ECB
:103820001D46806810F0800F39D000BFB5F1FF3F12
:1038300030D025B1FDF70CFE801BA8422AD32068AA
:10384000416821F0E00141606068B0F5827F0BD1F2
:10385000A068B0F5004F18BFB0F5806F04D12068A4
:10386000016821F040010160A06AB0F5005F09D154
:103870002068016821F4005101602068016841F46A
:1038800000510160012084F85D00002084F85C0094
:10389000032070BD2068806810F0800FC6D1002022
:1038A00070BD70472DE9F041144606460D460027CD
:1038B00015F0800F4FF0010204D01E491E48FEF79C
:1038C0009BFE03E01D491C48FEF796FE6806050EA8
:1038D000781CC7B2082FEBD35FF0000516F0800FFD
:1038E0004FF0010204D013491348FEF785FE03E0B0
:1038F00012491148FEF780FE7006060E681CC5B21C
:10390000082DEBD35FF0000514F0800F4FF001029B
:1039100004D008490848FEF76FFE03E0074906484F
:10392000FEF76AFE6006040E681CC5B2082DEBD3D4
:10393000BDE8F08128000020580000202900002068
:1039400010B5FDF79FFDBDE81040FEF7FDBE00007D
:103950000E48016841F4700101600D48016841F0B2
:103960000101016000218160026822F4102222F02E
:10397000A85202608214C260026822F480220260AF
:1039800081610449C00308607047000088ED00E0D1
:103990000010024008ED00E00148FEF766BF00009D
:1039A000D00200200148FEF760BF00000C03002099
:1039B0002DE9F0030268254B254C264D264EDFF8F5
:1039C0009CC0984218BFB0F1804F07D0A04218BFEA
:1039D000A84203D0B04218BF604504D14F6822F01E
:1039E000700247EA02021E4FDFF87880DFF8789015
:1039F000984218BFB0F1804F0CD0A04218BFA84227
:103A000008D0B04218BF604504D0B8421CBF404542
:103A1000484504D1CC6822F4407244EA02020260B4
:103A20008A68C2620A688262984218BF604504D000
:103A3000B8421CBF4045484501D1096901634FF0B8
:103A400001014161BDE8F00370470000002C014016
:103A50000004004000080040000C00400034014019
:103A600000400140004401400048014090F824100B
:103A700011F0010F06D001684A68836A22F400320F
:103A80001A434A6090F8241011F0020F06D0016822
:103A90004A68C36A22F480321A434A6090F82410BC
:103AA00011F0040F06D001684A68036B22F48022EB
:103AB0001A434A6090F8241011F0080F06D00168EC
:103AC0004A68436B22F400421A434A6090F824107B
:103AD00011F0100F06D001688A68836B22F48052BF
:103AE0001A438A6090F8241011F0200F06D0016864
:103AF0008A68C36B22F400521A438A6090F824103B
:103B000011F0400F11D001684A68036C22F4801252
:103B10001A434A60016CB1F5801F06D101684A68FA
:103B2000436C22F4C0021A434A6090F8241011F04A
:103B3000800F08BF704701684A68806C22F4002239
:103B4000104348607047F8B500250446C566FDF788
:103B50007FFC0746206800686FF07E4610F0080F73
:103B600008D03B4600224FF400112046009600F09A
:103B7000BDF968B92068006810F0040F0AD03B4610
:103B800000224FF480012046009600F0AFF908B102
:103B90000320F8BD202084F8690084F86A0084F8C6
:103BA00068500020F8BD10B5806A0021A0F85A10B6
:103BB000A0F85210FEF72CFF10BD00002DE9F041D7
:103BC00004460068D4F810C0A168E66941EA0C0117
:103BD000D4F814C010254CEA060C41EA0C0100226E
:103BE000BB4BD0F800C01746BA4E0CEA060C4CEAA4
:103BF0000101016020684168D4F80CC021F44051F3
:103C000041EA0C0141602168A06999421CBFD4F8C7
:103C100020C04CEA0000D1F808C02CF4306C4CEA0B
:103C2000000088602168AC48A1F1804CBCF59C3C48
:103C300024D0A1F1804CBCF5884C2DD0A1F1804C52
:103C4000BCF5904C34D0A1F1804CBCF5984C3BD0E5
:103C5000A1F1804CBCF5A04C42D0994256D1D0F88D
:103C6000880010F440604AD0B0F5806F4BD0B0F5BA
:103C7000006F46D0B0F5406F47D047E0D0F88800DD
:103C800010F0030008BF012540D001283BD00228D6
:103C900037D0032839D039E0D0F8880010F00C0074
:103CA0002DD004282FD008282BD00C282DD02DE083
:103CB000D0F8880010F0300021D0102823D0202820
:103CC0001FD0302821D021E0D0F8880010F0C000AB
:103CD00015D0402817D0802813D0C02815D015E063
:103CE000D0F8880010F4407009D0B0F5807F0AD079
:103CF000B0F5007F05D0B0F5407F06D006E0002586
:103D000004E0022502E0042500E0082573489942FA
:103D100059D14DB1022D0ED0042D08D0082D08BF69
:103D20004FF4004007D00EE0FDF7ACFF01E0FDF7D7
:103D3000D9FF002872D0626802EB4201814298BF2D
:103D4000B0EB023F01D90127ABE000268DB1022D77
:103D50001BD0042D22D0082D18BF01272AD000BF68
:103D60005F4AA0F5407191429CBF2168C86055D957
:103D7000E9E7FDF787FF6268010E03025008181893
:103D800071410023FCF72EFAEAE756495008401823
:103D900046F100010023FCF725FAE1E7FDF7A2FF59
:103DA0006268010E03025008181871410023FCF7E5
:103DB00019FAD5E7500810F5000046F1000100237C
:103DC000FCF710FACCE7E369B3F5004F09D0092DF1
:103DD000B9D2DFE805F048545F05690505057400B0
:103DE000B1E7092D36D2DFE805F0050F1A35223587
:103DF00035352C00FDF746FF4100606801EB5001AE
:103E0000B1FBF0F082B226E0FDF754FF410060689C
:103E100001EB5001B1FBF0F082B21CE041E032490D
:103E2000606801EB5001B1FBF0F082B213E0FDF7E6
:103E300059FF4100606801EB5001B1FBF0F082B224
:103E400009E060684FF4803101EB5001B1FBF0F004
:103E500082B200E0012722F00F00C2F342010843C2
:103E60002168C8601DE0FDF70DFF0146606801EBA9
:103E70005001B1FBF0F0216880B2C86011E0FDF79D
:103E800019FF0146606801EB5001B1FBF0F080B210
:103E9000216805E0626800EB5200B0FBF2F015E02B
:103EA000C8603846BDE8F081FDF71CFF0146606838
:103EB00001EB5001B1FBF0F080B22168F0E76068DF
:103EC0004FF4004202EB5002B2FBF0F080B2E7E7A1
:103ED00000800040F369FFEF001002400024F4006E
:103EE000FFFC0F00000024F40048E8012DE9F04138
:103EF00004460068069F9846C06915460E4631EA9A
:103F000000000CBF01200020A84227D1B7F1FF3FDD
:103F10001BD02FB1FDF79CFAA0EB0800B84214D9D2
:103F20002068016821F4D07101602068816821F067
:103F300001018160202084F8690084F86A00002073
:103F400084F868000320BDE8F0812068C06936EA83
:103F500000000CBF01200020A842D7D00020BDE8FF
:103F6000F08100000148FEF755BD00002802002046
:103F7000FEE7000000B58DB0002000900190029097
:103F800003900490059006900790089009900A907D
:103F90000B900C90322269460A48FEF72DFB002256
:103FA0001146104602F0D4FA3220FDF712F9002231
:103FB0001146104602F0CCFA3220FDF70AF90DB096
:103FC00000BD0000580000200FB4054B10B503A938
:103FD000044A029800F01CF810BC5DF814FB0000C5
:103FE00079440008540000200021016041607047BE
:103FF00002E008C8121F08C1002AFAD170477047B2
:10400000002001E001C1121F002AFBD1704700000F
:104010002DE9FF4F8DB00F460546002606E0252806
:104020000BD0DDE90F1290476D1C761C2878002814
:10403000F5D111B0304600F0F3B90024A246A146F4
:104040000122EC4900E0044315F8013F203B02FA4D
:1040500003F00842F7D128782A2810D06FF02F02F9
:104060002878A0F13001092914D80AEB8A0102EB63
:10407000410144F0020400EB010A6D1CF0E701CF9E
:104080005FEA000A03D544F40054CAF1000A44F080
:1040900002046D1C28782E2817D115F8010F44F062
:1040A00004042A280ED06FF02F022878A0F13001E6
:1040B00009290AD809EB890102EB410100EB01094A
:1040C0006D1CF2E757F8049B6D1C28786C280FD004
:1040D00006DC4C2817D068280DD06A2814D104E0DB
:1040E000742810D07A280FD10DE044F400140AE0AF
:1040F00044F4801401E044F440146978814202D110
:1041000004F580146D1C6D1C2A786E2A1FD00CDCFF
:10411000632A31D004DC002A8BD0582A11D1A3E0C5
:10412000642A68D0692A0CD165E0732A2ED004DC99
:104130006F2A73D0702A04D19BE0752A6FD0782A39
:104140006ED01046DDE90F129047761C50E1C4F3A3
:104150000250022806D0032809D0042801CF09D034
:10416000066045E101CFF117C0E9006140E101CFF0
:1041700006803DE106703BE117F8040B8DF8000066
:1041800000208DF80100EB46012003E057F804BB46
:104190004FF0FF3061074FF0000102D40DE008F14D
:1041A0000101884649450FDA8045F8DB1BF8081005
:1041B0000029F4D108E008F1010188468142FADBC8
:1041C0001BF808100029F6D1DDE90F23AAEB08003F
:1041D0008146214600F039F9304400EB080604E03E
:1041E000DDE90F121BF8010B9047B8F10108F7D277
:1041F00021464846F7E00A21C4F302534FF0000B72
:104200000891022B04D001CFC117032B09D00AE07B
:10421000FF1D27F00707F7E8020108E032E01FE082
:1042200020E000B2C117042B01D140B2C117031E18
:1042300071F1000307DA4FF0000CD0EB0C006CEBCF
:1042400001012D2302E0230504D52B238DF8243012
:10425000012303E0E30701D02023F7E7984658E065
:104260000A2110E010210EE010204FF0000B089002
:104270000CE010214FF0000B44F004044FF008094B
:10428000089103E008214FF0000B0891C4F302539A
:10429000022B04D001CF0021032B06D006E0FF1D26
:1042A00027F00707F7E8020103E080B2042B00D1F2
:1042B000C0B24FF0000823072BD5702A07D0DDF8D5
:1042C00020C08CF0100C5CEA0B0C05D00EE04023F3
:1042D0008DF82430012308E050EA010306D0302392
:1042E0008DF824308DF8252002239846DDF820C073
:1042F0008CF0080C5CEA0B0C0BD150EA010301D1E5
:10430000630706D530238DF824304FF00108A9F15A
:104310000109582A04D038A20B9208AA0A920BE08D
:104320003AA2F9E75B46089AFBF75CFF0B9B9B5CA4
:104330000A9A521E0A92137050EA0102F2D10A98A8
:10434000ADEB000000F1200B600702D524F48034AF
:1043500001E04FF00109D94502DDA9EB0B0000E0B7
:10436000002000EB0B0141440890AAEB010AE00396
:1043700006D4DDE90F232146504600F066F80644D6
:104380004FF0000908E009A911F80900DDE90F1252
:10439000904709F10109761CC145F4DBE0030CD517
:1043A000DDE90F232146504600F04FF8064404E0B3
:1043B000DDE90F1230209047761C0899481E0890BE
:1043C0000029F5DC08E00A980A990078491C0A914E
:1043D000DDE90F129047761CBBF10001ABF1010B38
:1043E000F1DC21465046DDE90F2300F01CF80644BD
:1043F0006D1C1BE609280100303132333435363765
:104400003839616263646566000000003031323320
:1044100034353637383941424344454600000000C0
:1044200030BCBDE8C08F2DE9F041044600251E4692
:104430001746880404D405E039462020B0476D1C97
:10444000641EF9D52846BDE8F0812DE9F041044607
:1044500000251E469046C80301D5302700E02027DE
:10446000880404D505E041463846B0476D1C641EFB
:10447000F9D52846BDE8F08113B54FF47A730122CF
:1044800069460348FEF718FD009802B010BD000011
:10449000B801002070B5049C83B101F00705C5F197
:1044A000080C002918BF11F0070F0DD062450DD878
:1044B000195C04FA05F21143195419E00DA0FFF735
:1044C00083FD4FF0FF3070BD082AF1D9E1B2FF2221
:1044D00021FA0CF122FA0CF203EB000C22409CF8BA
:1044E0000140AA4021438CF80110195C1143195472
:1044F000002070BD67697A436F6D70726573735683
:10450000616C7565204572726F72202C20496C6C4D
:104510006567616C20506172616D0A0038B50500F5
:104520000C4618BF002C17D04FF0000020706071AF
:1045300028780B464FF0000100904FF0010208462A
:10454000FFF7A8FFD5F8010004280BD31CA0FFF744
:104550003BFD4FF0FF3038BD26A0FFF735FD4FF093
:10456000FF3038BD00902346022201210020FFF7D2
:1045700091FF687D00902346012200210520FFF76E
:1045800089FF14F1050F04BF26A0FFF71DFD0121CF
:10459000D5F80500B0FBF1F06070D5F80900B0FB6C
:1045A000F1F0A070D5F80D00B0FBF1F0E070084616
:1045B000D5F811102831B1FBF0F02071002038BD82
:1045C0005B4552524F525D2076616C75654C454497
:1045D0005F436F6C6F72204572726F72202C20499E
:1045E0006C6C6567616C204F766572737465700AD8
:1045F0000000000067697A44617461506F696E74ED
:1046000073325265706F72744461746120457272C6
:104610006F72202C20496C6C6567616C2050617250
:10462000616D0A0067697A427974654F72646572D8
:1046300045786368616E6765204572726F72202CE1
:1046400020496C6C6567616C20506172616D0A0075
:10465000F8B51446069F0D460646002B18BF002FDE
:104660001AD03A4619466846FBF7F0FDFF2305F0DD
:1046700007026946C2F10800002D18BF15F0070FA8
:10468000A4460FD084420FD8885DCCF10801D040F9
:1046900023FA01F10840F8BD0BA0FFF795FC4FF09D
:1046A000FF30F8BD082CEFD901EB060C241AC4F139
:1046B00008049CF801C0E340895D0CEA0303D14083
:1046C00003FA00F00843F8BD67697A4465636F6DCB
:1046D0007072657373696F6E56616C756520457293
:1046E000726F72202C20496C6C6567616C20506180
:1046F00072616D0A000000000148406870470000C8
:10470000140000202DE9F041060036D03189944F85
:104710000A0A62F3070061F30F2080B23081397812
:10472000904CC1F38001C0F380024FF0020804F105
:104730005B05914244D010F0040F4FF0000100F0EF
:10474000010021D050B194F85A00415594F85A0014
:10475000401C84F85A0084A0FFF736FC307A10F031
:10476000020F2DD094F85A100120485594F85A00A1
:10477000401C84F85A0084A020E08AA0FFF724FCA3
:104780004FF0FF30BDE8F08150B194F85A00415528
:1047900094F85A00401C84F85A0073A0FFF714FCE8
:1047A000307A10F0020F0BD094F85A0000F8058010
:1047B00094F85A00401C84F85A0086A0FFF704FCC5
:1047C0003A883189C2F3C003C1F3C00083421CD0D0
:1047D00060F3C3023A8011F0080F0AD094F85A101F
:1047E0000320485594F85A00401C84F85A0080A0D1
:1047F00009E094F85A100420485594F85A00401CD7
:1048000084F85A0082A0FFF7DFFB39883289C1F3B0
:104810000013C2F3001083421CD060F304113980EE
:1048200012F0100F0AD094F85A100520485594F849
:104830005A00401C84F85A007DA009E094F85A10F0
:104840000620485594F85A00401C84F85A0080A06D
:10485000FFF7BAFB38883189C0F34013C1F3401227
:1048600093421CD062F34510388011F0200F0AD01B
:1048700094F85A100720485594F85A00401C84F8C0
:104880005A007CA009E094F85A100820485594F882
:104890005A00401C84F85A007DA0FFF795FB388829
:1048A0003189C0F3C023C1F3C02293421CD062F30C
:1048B000CB20388011F4006F0AD094F85A100B20E6
:1048C000485594F85A00401C84F85A0078A009E032
:1048D00094F85A100C20485594F85A00401C84F85B
:1048E0005A007AA0FFF770FB38883189C0F3003393
:1048F000C1F3003293421CD062F30C30388011F4C3
:10490000805F0AD094F85A100920485594F85A004C
:10491000401C84F85A0075A009E094F85A100A2047
:10492000485594F85A00401C84F85A0076A0FFF7C6
:104930004BFB94F85A100D20485594F85A00401C2F
:1049400084F85A003089C0F3022184F8B81075A0A9
:10495000FFF73AFB84F800800020BDE8F0810000FA
:1049600022000020480300204F6E426F617264698C
:104970006E673A20536F66744150206F72205765FE
:1049800062206D6F64650A004F6E426F61726469E8
:104990006E673A204169724C696E6B206D6F646579
:1049A0000A00000067697A50726F746F636F6C4D14
:1049B0006F64756C65537461747573204572726FA2
:1049C00072202C20496C6C6567616C2050617261AB
:1049D0006D0A00004F6E426F617264696E673A2023
:1049E00053746174696F6E206D6F64650A00000016
:1049F00057694669207374617475733A20696E2033
:104A000062696E64696E67206D6F64650A000000FC
:104A100057694669207374617475733A206F7574B1
:104A20002062696E64696E67206D6F64650A0000BC
:104A300057694669207374617475733A20636F6EA9
:104A40006E656374656420726F757465720A000028
:104A500057694669207374617475733A2064697389
:104A6000636F6E6E656374656420726F75746572D2
:104A70000A00000057694669207374617475733ABF
:104A800020636F6E6E6563746564206D326D0A001D
:104A900057694669207374617475733A2064697349
:104AA000636F6E6E6563746564206D326D0A00001D
:104AB00057694669207374617475733A2061707028
:104AC00020636F6E6E6563740A0000005769466963
:104AD000207374617475733A206E6F20617070205A
:104AE000636F6E6E6563740A000000005769466963
:104AF000207374617475733A20696E2074657374E1
:104B0000206D6F64650A00005769466920737461FF
:104B10007475733A206F75742074657374206D6FAB
:104B200064650A0052535349206973202564200AA2
:104B30000000000010B502004FF0000018BF00296F
:104B40001FD0A1F10103022B98BF10BD6FF002032B
:104B50004B40521C13F0010F18BF12F8010F002335
:104B6000C91E49100AD000BF92F801C0491E604416
:104B700012F802CFC0B26344DBB2F5D11844C0B220
:104B800010BD02A0FFF720FA002010BD4552524F81
:104B9000523A2067697A50726F746F636F6C537505
:104BA0006D202C2062756620697320656D707479A4
:104BB000206F72206C656E206572726F72202564A2
:104BC000200A000070B50D46060014D00D4C1921C6
:104BD00004F12B00FBF753FB2A46314604F12D006C
:104BE000FBF734FBE587012084F82C00FFF784FDF8
:104BF0002064002070BD04A0FFF7E6F94FF0FF30FD
:104C000070BD0000480300204552524F523A2064C4
:104C100061746120697320656D707479200A0000E9
:104C200010B50C4668B10A460146094801F076FB0A
:104C3000A04208BF10BD07A0FFF7C6F94FF0FF3034
:104C400010BD0BA0FFF7C0F94FF0FF3010BD000002
:104C50000C0400204552524F523A204661696C655F
:104C60006420746F2072625772697465200A0000B4
:104C70004552524F523A2067697A507574446174B4
:104C8000612062756620697320656D707479200AF1
:104C900000000000F0B585B004004FF000050E469E
:104CA00011BF002E4FF0FF3005B0F0BD2078002876
:104CB00040F2A68060194278152A80F09B80DFE8D8
:104CC00002F099999999996B99777D999999998316
:104CD0008C880B1F414F5D004B4F31784BA03970D2
:104CE000FFF772F93878012803BFFF2211461046FA
:104CF00000221CBF1146104601F02AFC00F07AB8D1
:104D0000414FD6F8011048A0C7F80110FFF75CF931
:104D1000D7F8010030B1012808D002280AD00328B2
:104D20000CD067E07A7B797A7879E5E72522002153
:104D3000AE20E1E7002235215820DDE73222D621DE
:104D40002A20D9E7304FD6F805103EA0C7F8051045
:104D5000FFF73AF97A7B797A787901F0F9FB49E043
:104D6000294FD6F809103CA0C7F80910FFF72CF915
:104D70007A7B797A787901F0EBFB3BE0224FD6F829
:104D80000D103AA0C7F80D10FFF71EF97A7B797A5B
:104D9000787901F0DDFB2DE0002280213848FCF716
:104DA00051FB00224FF480413648FCF74BFB21E0D9
:104DB000012280213348FCF745FB1BE000228021C3
:104DC0003048FCF73FFB15E031782FA0FFF7FCF8E7
:104DD00010E030A0FFF7F8F80CE03079D6F8073093
:104DE000B27971798DE80F00F378B27831882EA00E
:104DF000FFF7EAF8681CC5B22078A8423FF65AAF20
:104E000005B00020F0BD0000980200204576743AFD
:104E1000204556454E545F4C45445F4F4E4F4646E5
:104E2000202564200A0000004576743A2045564546
:104E30004E545F4C45445F434F4C4F522025640A0B
:104E4000000000004576743A4556454E545F4C4587
:104E5000445F522025640A004576743A4556454E13
:104E6000545F4C45445F472025640A004576743AF8
:104E70004556454E545F4C45445F422025640A0028
:104E80000008004800040048525353492025640A92
:104E9000000000005452414E53504152454E545F61
:104EA00044415441200A0000574946495F4E54503E
:104EB000203A205B25642D25642D25642025303281
:104EC000643A253032643A253032645D5B25645D96
:104ED000200A00002DE9F14FA8B04FF000082898F3
:104EE000ADF8748028B1F94D95F82C00012808D050
:104EF0003AE0F7A0FFF768F829B04FF0FF3000F074
:104F0000B1BE95F82B00032829D2FFF7F5FB296CD9
:104F1000401AB0F5FA6F27D9FFF7EEFB014695F876
:104F20002B302A6CF4A0FFF74FF895F82C0080B1D5
:104F3000FBA0FFF749F8E98F05F12D0001F050FBC8
:104F4000E98F81421CBFFEA0FFF73EF8FFF7D4FBBC
:104F5000286495F82B00401C85F82B0004E01921EB
:104F600005F12B00FBF78BF9FC4C1DA8A4F1C3063F
:104F70000B96089000276268A168B9468A4208BF6C
:104F8000002004D031BF881A2068511A401A00F05E
:104F9000FF0ABAF1000F00F01C8479DD0DF11C0B43
:104FA0004FF0010284B16168A0680D4688420FD9B4
:104FB000401A012898BF024615465846FBF746F9A5
:104FC0006068411961601EE0E5A0FEF7FDFF1BE08F
:104FD000E3682068CB1AC01A012805D95846FBF7A8
:104FE00035F9691C61600FE0054602465846FBF73B
:104FF0002DF9E1686160C5F101020BEB0501204666
:1050000001F040F90544EDB3DC484178FF2905D1B2
:105010009DF81C10FF2905D055292DD001780129B4
:105020002AD114E0017851B18188042924D9494555
:1050300022D0FF2131707170022181801CE0FF219C
:1050400031707170022181800121017014E081882A
:105050009DF81C207254491C89B2818004290BD907
:1050600073884FEA132C6CF3070263F30F22121DAF
:105070001FFA82F9494510D09DF81C1041708178C3
:10508000491C01E001E003E081707F1C574585DB8E
:10509000BA488088042840F29C83B84CA1884945CE
:1050A00040F097833046FFF745FDA1884FF0120A84
:1050B00031444FF0060B11F8011C814245D14A469C
:1050C00031460B98FBF7C2F80898A0F800904FF013
:1050D000000984F80090A4F8049084F8029084F801
:1050E0000190A7A0FEF770FFFFF706FB0146BDF891
:1050F0007420A8A0FEF768FFBDF874000024002803
:1051000088BF724D0AD928194178A7A0FEF75CFF25
:10511000601C84B2BDF87400A042F4D88EA0FEF7E3
:1051200053FF6A4F7C1C78790D2800F0E28242DA46
:10513000072800F0BC8238DC01287DD0032800F06D
:10514000AD81062800F0FC8246E0994C01256846B6
:10515000FEF74AFFFF208DF800008DF801008DF862
:1051600004A060798DF805004FEA1B2161F3070068
:105170006BF30F20ADF802008DF808500A21684645
:10518000FFF7D8FC8DF809000A21684601F028FADB
:10519000010044BF87A0FEF717FF8EA0FEF714FFA3
:1051A00029B06FF0010000F05DBD0A2818BF0C287F
:1051B00012D100F0C5BA142800F0FE8206DC0F28D8
:1051C00000F0C982112800F0048305E0162800F0E1
:1051D000B782182800F0088302256846FEF704FF0E
:1051E000FF208DF800008DF801008DF804A0607993
:1051F0008DF805004FEA1B2161F307006BF30F20C8
:10520000ADF802008DF808500A216846FFF792FCBD
:105210008DF809000A21684601F0E2F9002803DA56
:10522000014664A0FEF7D0FE00E005E070A000BFDC
:10523000FEF7CAFE00F0CDBA6846FEF7D5FEFF20A5
:105240008DF800008DF8010002208DF804006079CF
:105250008DF805006CA00AAFD0E90010CDE902106E
:105260006CA0D0E90010CDE904106DA0D0E90010C9
:10527000CDE908106DA1D1E90001CDE906016EA0CC
:1052800090E87F1087E87F10202274A10DF1520072
:10529000FAF7DCFF0DF14A00FEF7A6FE9DF851007B
:1052A0004FEA192140F002008DF8510061F3070028
:1052B00069F30F20ADF8480000226F2162F3070068
:1052C00061F30F20ADF802007321D9E048030020FC
:1052D00047697A7769747348616E646C65204572BA
:1052E000726F72202C20496C6C6567616C20506174
:1052F00072616D0A000000005761726E696E673A54
:1053000067697A50726F746F636F6C526573656E04
:1053100064446174612025642025642025640A00AA
:105320005761726E696E673A2074696D656F757446
:105330002C20726573656E642064617461200A00BC
:105340004552524F523A20726573656E6420646113
:105350007461206572726F720A0000000C040020F4
:105360004552524F523A20696E7075742072622015
:105370006973204E554C4C0A000000001C000020B0
:10538000476574204F6E65205061636B6574210A18
:105390000000000057694669324D43555B2534646F
:1053A0003A2534645D3A2000253032782000000030
:1053B000490300204552524F523A207561727420C1
:1053C0007772697465206572726F72202564200A95
:1053D000000000004552524F523A20636865636BEB
:1053E0002073756D206572726F72210A00000000D3
:1053F0004552524F523A20636D6420636F646520BA
:105400006572726F72210A003030303030303034C3
:10541000000000003030303030303032000000000A
:105420003033303130313031000000003033303132
:105430003031303000000000623363616363323822
:10544000353766393465336639336434363132384A
:1054500062623862303132610000000064313432FF
:1054600035356465643436373464336139336435D3
:105470003632303539616337383138380000000052
:105480006846FFF757FB8DF872007321684601F0FC
:10549000A7F8010040F19D8100F026B9207ABDF8FF
:1054A0007460C7F84490C7F84890C7F84C90C7F8A4
:1054B0005090C7F854902546A7F85890012804D07A
:1054C000022871D005286ED099E015F8090FDFF891
:1054D00014B507F1440607F1860810F0010F13D048
:1054E000317810206B1C01F80B0030780021401C33
:1054F00030700120024600900846FFF7A9F8002806
:1055000018BF012088F80000287810F0020F10D092
:10551000317811206B1C01F80B0030780222401CFE
:1055200030700120014600900020FFF791F8C8F884
:105530000100287810F0040F0CD0307800F80BA090
:105540003078401C30700120AA78002112FB001036
:10555000C8F80500287810F0080F0DD03178132016
:1055600001F80B0030780121401C3070E8780022EF
:1055700010FB0120C8F80900287810F0100F0DD09A
:105580003178142001F80B003078401C3070012075
:105590002A79002112FB0010C8F80D000120387094
:1055A000C8462CE000E011E007F1B20107F19C00D1
:1055B000FEF7B4FF002840F00C81D7F8B2001E902F
:1055C000B7F8B600ADF87C00D84618E0A6F10A029C
:1055D00005F1090107F11200FAF738FEA6F10A00F9
:1055E000C7F8230097F84410FE4A0F20C846885495
:1055F00097F84400401C87F84400032038701EAD23
:10560000B8F1000F33D002A8FEF7EEFCFF208DF8B2
:1056100008008DF809002079401C8DF80C00607995
:105620008DF80D0008F10600020A62F3070160F32D
:105630000F21ADF80A10207A4246401C8DF8100068
:1056400029460DF11100FAF701FE102102A8FFF71B
:1056500071FA8DF8170002A81024214600F0C0FF4F
:10566000010045D52246E048FEF7AEFCB1E006A8B1
:10567000FEF7BAFCFF208DF818008DF8190020798C
:105680000022401C8DF81C0060798DF81D0005215A
:1056900062F3070061F30F20ADF81A00092106A894
:1056A000FFF748FA8DF8200006A80924D5E72068FE
:1056B0000090606801909DF804000022401C8DF865
:1056C0000400052162F3070061F30F20ADF802002A
:1056D00009216846FFF72EFA8DF80800092168466F
:1056E00000F07EFF010074D5AFF23830FEF76CFC9D
:1056F0006FE020680090606801909DF8040000222F
:10570000401C8DF80400052162F3070061F30F20AF
:10571000ADF8020009216846FFF70CFA8DF8080081
:105720000921684600F05CFF002804DA0146AFF268
:105730007C30FEF749FC2046FEF7E4FF49E000BF5D
:1057400097F83110491C814243D1192107F12B00F0
:10575000FAF795FD3DE020680090606801909DF8A3
:1057600004000022401C8DF80400052162F30700AC
:1057700061F30F20ADF8020009216846FFF7DAF95E
:105780008DF808000921684600F02AFF010044BF97
:10579000AFF2E030FEF718FC94A0FEF715FCFEF720
:1057A000ABFF0446FEF7A8FF001BB0F5167FF9D942
:1057B00000F062FD0DE000BF97F83110491C8142F6
:1057C00004D1192107F12B00FAF759FD8CA0FEF73F
:1057D000FBFB934C2078012838D0022847D00328BF
:1057E0005BD0042864D074E097F83110491C8142E2
:1057F00004D1192107F12B00FAF741FDA068C7F881
:10580000B900E068C7F8BD00208AA7F8C100A07CF5
:1058100087F8C300B7F8B900020A62F3070160F322
:105820000F21A7F8B910D7F8C0007E4A00BAC7F810
:10583000C00097F870100E20885497F87000401C34
:1058400087F870000420387077A0F1E400252570F7
:10585000162204F1860104F14400FFF71BFA656487
:10586000A564E56425656565A4F8585031E0002518
:105870002570012204F1B80104F15A00FFF70AFA79
:10588000C4F85A50C4F85E50C4F86250C4F8665068
:10589000C4F86A50A4F86E501BE000202070D4F8C1
:1058A000232004F1120104F14400FFF7F3F910E0A2
:1058B000002525700B2204F1B90104F17000FFF7F7
:1058C000E9F925676567A567E567C4F88050A4F81E
:1058D0008450289D04F19C0700264FF00C08EDB37E
:1058E00038782978884203D055A0FEF76DFB012651
:1058F000D7F80110D5F80100814203D056A0FEF779
:1059000063FB0126D7F80510D5F80500814203D0C6
:1059100057A0FEF759FB0126D7F80910D5F8090062
:10592000814203D057A0FEF74FFB0126D7F80D1098
:10593000D5F80D00814203D057A0FEF745FB0126A4
:10594000797D687D814203D058A0FEF73DFB01269A
:10595000D7F81110D5F81100814200E010E013D003
:10596000FEF7CAFE574FB968401A41F2707188427B
:105970000AD355A0FEF728FBFEF7BEFEB86004E090
:1059800057A0FEF721FBF8E056B35FA0FEF71CFB23
:1059900004F1B2012846FEF7C1FD10BB4FF0040927
:1059A00004F1B207062604A8FEF71EFBFF208DF8BF
:1059B00010008DF8110005208DF81400D4F8270090
:1059C0008DF81500401CC4F827004FEA182161F338
:1059D000070068F30F208DF81890ADF812009FE0D3
:1059E000CBE0B8E08D030020C06600087265706FE0
:1059F00072743A4D4355207265626F6F74210A00CC
:105A000041636B2050524F44554354494F4E5F4DB4
:105A10004F44452073756363657373200A0000006B
:105A200048030020B903002041636B204745545FC1
:105A30005554542073756363657373200A00000026
:105A400076616C75654C45445F4F6E4F66662043CA
:105A500068616E6765640A0076616C75654C4544E3
:105A60005F436F6C6F72204368616E6765640A0004
:105A700076616C75654C45445F52204368616E6782
:105A800065640A0076616C75654C45445F47204348
:105A900068616E6765640A0076616C75654C4544A3
:105AA0005F42204368616E6765640A0076616C75C9
:105AB000654661756C745F4C4544204368616E6750
:105AC00065640A001C00002076616C756543686996
:105AD0007054656D70204368616E6765640A0000EC
