:020000040800F2
:1000000080050020D5000008FD1E0008611D0008C5
:1000100000000000000000000000000000000000E0
:100020000000000000000000000000007B1F00082E
:100030000000000000000000791F0008C51F000834
:100040000501000805010008050100080501000878
:100050000501000805010008050100080501000868
:1000600000000000050100088106000805010008E5
:100070000501000805010008000000000501000856
:100080000000000000000000000000000000000070
:100090000501000800000000000000000501000844
:1000A0000000000005010008000000000000000042
:1000B000BD2A000805010008000000000000000043
:1000C0000348854600F0CAFA00480047352B00086F
:1000D000800500200C4880F308880C480168090E50
:1000E0000B4A914205D10B480B4901600B480C4962
:1000F00001600C4880470C480047FEE7FEE7FEE73A
:10010000FEE7FEE7FEE70000800500200400000097
:100110001F000000341002400100000000000140F8
:100120000000000089200008C100000830B50B461F
:10013000014600202022012409E00D46D5409D42C1
:1001400005D31D469540491B254695404019154647
:10015000521E002DF1DC30BDF0B51FB40646002064
:1001600082B005464024019100901BE0019922468F
:100170000F46304600F0EEF9049A059B801A99412B
:1001800010D310461946224600F0D4F9361A8F4192
:100190000197224601200021009F00F0CBF938187A
:1001A0004D4100902046641E0028DFDC019B009832
:1001B0002946324607B0F0BDF0B50746084658401C
:1001C00087B0C00F049048000E4659004008490807
:1001D000BC1A884105D2384631461E4617460B46A2
:1001E00002465800400810434CD0300D03904005A3
:1001F0005900400D490D0590401A0290402872DACE
:1002000018030121000B090508430190049800928E
:10021000002805D0019952420020884100920190A7
:10022000029840210A1A0199009800F083F90546C6
:100230000C466B4607CB00F09EF9C0197141039A3A
:100240000E0D0023D71756401A467A40164344D065
:10025000049A002A2DD0029A012A039A15DC12056D
:10026000C01A914101263605001C7141D20F059E2E
:10027000D2070093019202962A46234600F09BF98A
:1002800007B0F0BD38463146FAE71605224A0F4658
:10029000B218C01AB74101210905001C4F410018CE
:1002A0007F41114618187941E20F10436D196441DE
:1002B00013E0E2076D0815436408C2071443039A6C
:1002C00001261205C01A91413605001C7141CE0766
:1002D000400830434908C01851412A46234600F0DF
:1002E0005DF9CDE7FFE7049801224000C117121A1B
:1002F00000238B4104983146C417381AA141EEE718
:1003000030B40124E407634030BC55E730B4012425
:10031000E407614030BC4FE70000E0FFF0B51FB4D8
:1003200088B00B990998002448400999C00F4900EA
:1003300049080991C0070B990090490049080B91A1
:1003400009990898A64608431CD00B990A980843B7
:1003500018D0099801244000420D4800410D099829
:1003600024050003000B204309900B980003000BA9
:1003700020430B9050181C4940180022019014464D
:10038000104605E0002001460DB0F0BD032801DA5B
:10039000034600E003239C46C11A0AAE0AE05F0050
:1003A00008ADED5B4F00F75B7D430027AA187C4149
:1003B000491C5B1E6145F2DD410004AB5A52210429
:1003C000120C0A43240C401C0828DFDB0198029021
:1003D0000099704601910090059B049A0799069830
:1003E00000F0E9F8D0E700000DFCFFFFF0B50C4687
:1003F0005C4085B0E40FE40703944C0000266408D9
:1004000059009446490802460296224321D062468A
:100410000A431ED06200570D4A000E032303550DF8
:10042000012402462C492405781B1B0B360B40186F
:1004300023432643614600901C46501AB44103D31F
:100440000098401C009002E0921800985B41002840
:1004500003DA0020014605B0F0BD002001210905A6
:100460000746864611E064461D46141BB54106D377
:100470006546521BB341744607430C43A646CD075D
:1004800040084908284392185B4105460D43EAD1CC
:100490001046184313D06046194650407140084337
:1004A00006D06046101AB34106D20122002306E0AE
:1004B00000220123DB0702E00122D24353100098FF
:1004C00074460105381C6141029C039D0019694175
:1004D00000F064F8BFE70000FD0300000EB5054A18
:1004E0000292002200921346019200F064F803B0D9
:1004F00000BD0000330400004A0009030123090B7A
:100500001B051943094B10B5520D9A4201DA002020
:1005100010BD064B34339A4203DC9A1A00F01AF8E5
:1005200010BD03495118884010BD0000FF030000B2
:10053000CDFBFFFF10B5202A04DB0146203A914095
:10054000002010BD914020239C1A0346E34019432C
:10055000904010BD10B5202A04DB0846203AD04058
:10056000002110BD0B46D340D0402024A21A914058
:100570000843194610BD10B5202A06DBCB170846E4
:10058000203A1041C1170B4306E00B461341D040FF
:100590002024A21A91400843194610BD10B5002B23
:1005A00008DA0024401C614192185B411A4301D1D2
:1005B0004008400010BDF0B51FB482B005460C00E5
:1005C00003D0084602F082FA02E002F07FFA2030FF
:1005D0000246009021462846FFF7ACFF049B059A8F
:1005E00004460F4618431143084314D018461043DD
:1005F0001BD0009840210A1A18460599FFF7AAFF58
:1006000005460E46009A05990498FFF793FF0843A4
:1006100005D0012004E02046394607B0F0BD002097
:10062000C11705430E432C43374300990E986305C9
:10063000401A7905E40A00220C43FD0A0A3002D56B
:1006400000200146E9E70105101969410C9C0D9D48
:1006500000196941FFF7A2FFDFE70000064C012502
:10066000064E05E0E36807CC2B430C3C984710345A
:10067000B442F7D3FFF728FD102C0008302C0008F7
:1006800010B5024800F020F810BD00004000002026
:100690000D210248006881637047000008000020B7
:1006A0001A2102480068816370470000080000209A
:1006B00007E001218903034800F0C6FA322000F068
:1006C000CDF9F6E70008005010B5044694480068DC
:1006D000934A08322168914201D1082117E0904ADB
:1006E0001C322168914201D1802110E08C4A3032C5
:1006F0002168914201D1C91409E0894A4432216834
:10070000914202D10121C90301E00121C90408403D
:1007100000283DD02068006808210840002837D014
:10072000206800688843216808607D490831206896
:10073000884201D1082017E079491C31206888429D
:1007400001D1802010E0764930312068884201D103
:10075000C01409E0724944312068884202D1012066
:10076000C00301E00120C0046D494860A06B012175
:100770000843A06304212520015500BF0021242047
:10078000015500BF606B002802D02046616B88478E
:1007900063480068624A08322168914201D104210D
:1007A00017E05F4A1C322168914201D1402110E0DC
:1007B0005B4A30322168914201D1091509E0584A5B
:1007C00044322168914202D10121890301E00121D3
:1007D0008904084000283BD02068006804210840B4
:1007E000002835D02068006820210840002805D165
:1007F000206800680421884321680860484908315E
:100800002068884201D1042017E045491C31206846
:10081000884201D1402010E04149303120688842AF
:1008200001D1001509E03E4944312068884202D1D7
:100830000120800301E0012080043949486005213E
:1008400025200155206B002802D02046216B8847C7
:1008500033480068324A08322168914201D10221AE
:1008600017E02F4A1C322168914201D1202110E06B
:100870002B4A30322168914201D1491509E0284ABA
:1008800044322168914202D10121490301E0012152
:1008900049040840002842D020680068022108402E
:1008A00000283CD02068006820210840002805D19D
:1008B00020680068022188432168086018490831CF
:1008C0002068884201D1022017E015491C312068B8
:1008D000884201D1202010E011493031206888423F
:1008E00001D1401509E00E4944312068884202D107
:1008F0000120400301E00120400409494860A06B49
:10090000A06301212520015500BF002124200155AD
:1009100000BFE06A002802D02046E16A884710BD87
:100920000000024001460022002901D10120704749
:100930002520405C002802D10023242043540223B8
:10094000252043540868026842480240CB68886802
:1009500018430B6918434B6918438B691843CB69DB
:1009600018430B6A18430243086802603A4B086850
:1009700098420FD138487830806A00090001364B20
:10098000783398621846806A4B681843324B783344
:10099000986259E0304B14330868984210D12E48C1
:1009A0007830806AF02398432B4B7833986218464E
:1009B000806A4B681B011843274B7833986243E0E9
:1009C000254B28330868984211D123487830806A33
:1009D0000F231B029843204B783398621846806A95
:1009E0004B681B0218431C4B783398622CE01A4B5F
:1009F0003C330868984211D117487830806A0F2339
:100A00001B039843144B783398621846806A4B68EE
:100A10001B031843104B7833986215E00E4B50338C
:100A20000868984210D10C487830806A0F231B0464
:100A30009843094B783398621846806A8B881B0468
:100A40001843054B78339862012325204354002036
:100A50006DE700000FC0FFFF0800024031B5002421
:100A600000F0FCF8044600BF00F0F8F8001B009905
:100A70008842F9D338BD000070B503460022002437
:100A80000020D0E0012696400D6835402C46002C11
:100A900077D04D68022D02D04D68122D15D1D508A2
:100AA000AE001D462035A8595507EE0E0F25B5405E
:100AB0000646AE4330465607F60E0D69B54028434C
:100AC000D508AD001E46203670514D68012D08D066
:100AD0004D68022D05D04D68112D02D04D68122DA4
:100AE00018D1986856000325B5400646AE433046F7
:100AF0005600CD68B5402843986058680125954058
:100B00000646AE43304610264D6835402D099540C7
:100B100028435860186856000325B5400646AE4382
:100B200030460D79AD07AD0F5600B540284318602B
:100B3000D86856000325B5400646AE4330465600F9
:100B40008D68B5402843D860012636074D6835408A
:100B5000B54267D1374D6D6B01263543354E756310
:100B6000354D9608B600A85995072E0F0F25B540AC
:100B70000646AE43304605252D07AB4202D100257F
:100B80000BE04FE02D4DAB4201D1012505E02C4D8E
:100B9000AB4201D1022500E006259607360FB5408D
:100BA0002843254D9608B600A851264D28680546CD
:100BB000A5432846012636044D683540B54202D18A
:100BC0000546254328461F4D286068680546A5430D
:100BD0002846012676044D683540B54202D10546C7
:100BE00025432846174D6860A8680546A543284652
:100BF000012636054D683540B54202D105462543EC
:100C00002846104DA860E8680546A54328460126F9
:100C100076054D683540B54202D105462543284644
:100C2000084DE860521C0D68D540002D00D029E722
:100C300070BD000000100240080001400004005098
:100C4000000800500004014042694A404261704778
:100C5000002A01D0816100E081627047014800688C
:100C6000704700000000002002480068401C014955
:100C7000086070470000002010B506480068402159
:100C8000084304490860002000F006F800F018F856
:100C9000002010BD0020024070B504467D21C9002F
:100CA00006480068FFF742FA054600F027FE0022DA
:100CB0002146501E00F076F8002070BD0400002090
:100CC00010B50B48406B01210843094948630022D5
:100CD0001146501F00F066F800221146901E00F0E9
:100CE00061F800221146501E00F05CF810BD0000B3
:100CF0000010024070B504460E461546002C01D186
:100D0000012070BD6920005D002802D1204600F05E
:100D1000F9FF24216920015520680068400840003F
:100D200021680860204601F0BFFB606A002802D0FD
:100D3000204601F0AAFA206840680921C9028843C8
:100D400021684860206880682A218843216888607B
:100D50000120C002854207D1206840680002000AD5
:100D60003106084321684860206800680121C902F3
:100D700088432843216808602068006801210843EF
:100D800021680860204601F0F9FABAE700BFC20600
:100D9000D20E01219140024A116000BF704700004D
:100DA00000E100E070B504460D461646294620468F
:100DB00001F0A6F870BD000070B5044600250026BD
:100DC00020212068084020287ED171480068032136
:100DD00009050840032212052169114088420DD0FF
:100DE000111120690840884208D169480068012132
:100DF00049040840002801D0012070BD6448806B80
:100E0000012109070843624988636248006889151F
:100E1000084360490860FFF721FF054606E0FFF739
:100E20001DFF401B642801D90320E6E759480068EC
:100E3000FF21013108400028F1D0554840300069B9
:100E40000321090408400322120421691140884249
:100E50005CD04F48403000691146884306464C48F4
:100E6000403000690121C904084349494031086103
:100E7000084600690121C904884345494031086199
:100E80000846066140153040002814D0FFF7E6FE02
:100E9000054607E0FFF7E2FE401B3F49884201D9C3
:100EA0000320AAE73A48403000690121490208407E
:100EB000400A0028EED000BF032109042069084041
:100EC00088420DD1324800E020E0006809018843E3
:100ED000032212052169114008432D49086006E0EC
:100EE0002B480068032109058843294908602848E0
:100EF0004030006903210904884303221204216958
:100F00001140084322494031086100BF0221206896
:100F10000840022809D11E484030C0680C2188438F
:100F2000616808431A494031C860042120680840BC
:100F300004280AD116484030C0680321890288433A
:100F4000A168084312494031C86008212068084060
:100F500008280AD10E484030C0680321090388439D
:100F6000E16808430A494031C86080212068084090
:100F700080280AD106484030C0680321890488438C
:100F80006169084302494031C860002035E700002C
:100F900000100240007000408813000070B5044645
:100FA0000D46002676480068C007C00FA8420ED242
:100FB00073480068400840002843714908600846AB
:100FC0000068C007C00FA84201D0012070BD0221F7
:100FD00020680840022807D16A48C068F021884389
:100FE000A16808436749C8602078C007C00F00287F
:100FF0004CD06068022809D1624800680121490488
:101000000840400C002824D10120DFE76068002858
:1010100009D15C480068012149020840400A0028C3
:1010200017D10120D2E76068032809D1554800682C
:10103000012149060840400E00280AD10120C5E7D9
:1010400050480068042108408008002801D1012090
:10105000BCE74C48C0688008800061680843494983
:10106000C860FFF7FBFD0646606802280FD107E065
:10107000FFF7F4FD801B4449884201D90320A5E70E
:101080004048C0680C2108400828F1D134E060686D
:1010900003280FD107E0FFF7E1FD801B3A498842A2
:1010A00001D9032092E73748C0680C2108400C287A
:1010B000F1D121E0606800280FD107E0FFF7CEFDF5
:1010C000801B3149884201D903207FE72D48C06841
:1010D0000C2108400028F1D10EE007E0FFF7BEFD2B
:1010E000801B2949884201D903206FE72548C06841
:1010F0000C2108400428F1D121480068C007C00F26
:10110000A8420ED31E4800684008400028431C49EE
:10111000086008460068C007C00FA84201D001203F
:1011200054E7042120680840042808D11548C06805
:10113000072109028843E16808431249C860082171
:1011400020680840082809D10E48C0680721C90254
:1011500088432169C90008430A49C86000F044F87F
:101160000849C968F02211400909084A515CC84081
:10117000074908600020FFF78FFD002026E70000E8
:10118000002002400010024088130000EC2B0008F1
:10119000040000200148006870470000040000209F
:1011A00000B5FFF7F7FF0549C96807221202114091
:1011B000090A034A515CC84000BD0000001002400B
:1011C000FC2B000800B5FFF7E5FF0549C9680722B9
:1011D000D2021140C90A034A515CC84000BD000058
:1011E00000100240FC2B0008F8B500240026002067
:1011F0000090002700253248406807214903084035
:10120000470B2F48C0680C210840002806D004284E
:1012100009D0082811D00C2849D110E0781C0121F0
:101220008140CD0348E0264800681021084000288E
:1012300001D0244D00E0244D3EE0244D3CE0204808
:10124000C0680F218904084004461D48C068032176
:10125000890508400646A00C1D490C5CB00D461CD3
:101260001748C06801210904084000900098002830
:1012700015D11348006810210840002807D01149F3
:10128000614308463146FEF751FF05460EE00E4920
:10129000614308463146FEF749FF054606E00B4923
:1012A000614308463146FEF741FF054604E0781CDD
:1012B00001218140CD0300BF00BF2846F8BD0000DA
:1012C0000010024000093D000024F40000127A00E2
:1012D000042C0008F8B5044600252078C007C00F8C
:1012E000002870D0FB48C0680C21084008280BD0AB
:1012F000F848C06808400C2813D1F648C06801219E
:101300000904084088420CD1F248006801214904D0
:101310000840400C00286AD06068002867D101208E
:10132000F8BD00BF012109046068884205D1E94881
:1013300000680843E74908602EE005210904606859
:10134000884215D1E3480068012109048843E14936
:10135000086008460068012189040843DD490860E7
:1013600008460068012109040843DA49086013E0CF
:10137000D8480068012109048843D6490860084616
:101380000068012109040840009000BFD1480068AE
:1013900089008843CF49086000BF6068002813D0E7
:1013A000FFF75CFC054606E0FFF758FC401B64288D
:1013B00001D90320B4E7C748006801214904084067
:1013C000400C0028F0D012E0FFF748FC054606E08C
:1013D000FFF744FC401B642801D90320A0E7BD4867
:1013E0000068012149040840400C0028F0D1022186
:1013F0002068084002286AD1B648C0680C2108401D
:1014000004280BD0B348C06808400C281DD1B1484F
:10141000C068012109040840002816D1AD480068C1
:10142000042108408008002804D0E068012801D089
:10143000012075E7A74840681F21090288432169F8
:1014400009020843A349486041E0E068002824D02D
:10145000A048006809218843E16808439D49086065
:10146000FFF7FCFB054606E0FFF7F8FB401B0228F0
:1014700001D9032054E797480068042108408008F8
:101480000028F1D0934840681F2109028843216950
:10149000090208438F49486019E08E480068092115
:1014A0008843E16808438B490860FFF7D7FB05468E
:1014B00006E0FFF7D3FB401B022801D903202FE7EA
:1014C000844800680421084080080028F1D11021D8
:1014D0002068084010287ED17E48C0680C21084052
:1014E00000282ED17B480068012149020840400AAB
:1014F000002804D0A069002801D1012010E7754818
:101500004068072149038843216A084371494860BC
:10151000084640680002000A217F090608436D4919
:101520004860FFF761FE6B49C968F0221140090964
:10153000694A515CC840694908600020FFF7ACFB6C
:1015400049E0A06900282CD062480068FF210131E1
:10155000084360490860FFF781FB054606E0FFF796
:101560007DFB401B022801D90320D9E659480068B9
:10157000012149020840400A0028F0D0554840683F
:10158000072149038843216A0843524948600846B5
:1015900040680002000A217F090608434D4948605F
:1015A00019E04C480068FF2101318843494908602F
:1015B000FFF754FB054606E0FFF750FB401B0228EF
:1015C00001D90320ACE643480068012149020840E4
:1015D000400A0028F0D1082120680840082839D1A5
:1015E000606900281BD03B48403000690121084356
:1015F000384940310861FFF731FB054606E0FFF747
:101600002DFB401B022801D9032089E631484030D8
:1016100000690221084040080028F0D01AE02D4857
:1016200040300069400840002A4940310861FFF716
:1016300015FB054606E0FFF711FB401B022801D908
:1016400003206DE62348403000690221084040082D
:101650000028F0D104212068084004287ED100260B
:1016600000271C48806B89060840002805D11948CE
:10167000806B084317498863012619480068FF21D9
:1016800001310840002817D1154800680843144963
:1016900008600127FFF7E2FA054606E0FFF7DEFAE9
:1016A000401B642801D903203AE60D480068FF2159
:1016B000013108400028F1D000BFFF210131A068AE
:1016C00088420FD103484030006908430149403146
:1016D00008613EE000100240EC2B000804000020EE
:1016E00000700040A06800280DD177480069FF21F4
:1016F0000131884374490861084600690915884327
:101700007149086125E005210902A068884213D1CA
:101710006D480069FF21013188436B490861084623
:101720000069091508436849086108460069891578
:101730000843654908610CE063480069FF210131F5
:1017400088436149086108460069091588435E4974
:10175000086100BFA068002816D000E03BE0FFF75A
:101760007DFA054607E0FFF779FA401B57498842A2
:1017700001D90320D4E554480069012149020840F9
:10178000400A0028EFD013E0FFF768FA054607E0AB
:10179000FFF764FA401B4D49884201D90320BFE599
:1017A00049480069012149020840400A0028EFD158
:1017B000012F05D146480068390288434449086032
:1017C000012E07D140484038806B310788433E499D
:1017D0004039886300BF606A002872D03A484038B8
:1017E000C0680C2108400C2869D0606A022848D1E2
:1017F000354840380068012109068843324940399C
:101800000860FFF72BFA054606E0FFF727FA401BB2
:10181000022801D9032083E52B48403800680121C4
:1018200049060840400E0028EFD1216BE06A0843CA
:10183000A16A084324494039C968FD221204914332
:10184000084321494039C86008460068012109065B
:1018500008431D4940390860FFF700FA054606E0D5
:10186000FFF7FCF9401B022801D9032058E5164870
:1018700040380068012149060840400E0028EFD09A
:101880001FE01148403800680121090688430E49CD
:1018900040390860FFF7E2F9054606E0FFF7DEF998
:1018A000401B022801D903203AE507484038006868
:1018B000012149060840400E0028EFD101E0012037
:1018C0002EE500202CE500004010024088130000A7
:1018D00000700040042806D106490969042211431A
:1018E000044A116105E00349096904229143014A50
:1018F0001161704700E000E07047000070B50446D9
:101900002546681E0949884201D901200CE0681E5D
:10191000074948610321081F00F0F2FA002004493A
:10192000886107200861002070BD0000FFFFFF00F4
:1019300000E000E010B5FFF7DFFF10BD024600BF7A
:101940003420805C012801D102207047012334201B
:10195000835400BF022335208354106840687023ED
:10196000984313685860106840680B681843136800
:1019700058601068806880239843136898601068E6
:1019800080684B681843136898600123352083549E
:1019900000BF00233420835400BF0020D5E710B5DA
:1019A00086B0044601218907206888420DD10220B3
:1019B00001900290002003900320049002200590E3
:1019C00001A905200007FFF757F806B010BD70B554
:1019D00004460D46164600BF3420005D012801D1A3
:1019E000022070BD01213420015500BF02213520A5
:1019F0000155002E06D0042E1BD0082E33D00C2EFD
:101A000062D147E02946206800F0B2FB2068806977
:101A1000082108432168886120688069042188437F
:101A20002168886120688069E968084321688861C5
:101A30004BE02946206800F0BAFB2068806901214C
:101A4000C9020843216888612068806901218902F0
:101A500088432168886120688069E9680902084331
:101A60002168886131E02946206800F0C5FB2068C4
:101A7000C069082108432168C8612068C069042141
:101A800088432168C8612068C069E9680843216803
:101A9000C8611AE02946206800F0D0FB2068C069C0
:101AA0000121C90208432168C8612068C069012179
:101AB000890288432168C8612068C069E968090211
:101AC00008432168C86100E000BF00BF0121352044
:101AD000015500BF00213420015500BF002080E7E0
:101AE00010B50446002C01D1012010BD3520005D49
:101AF000002805D1002134200155204600F00CF8C3
:101B0000022135200155211D206800F0F1FA012144
:101B1000352001550020E8E710B50446012189076A
:101B20002068884222D11248806B01210843104965
:101B300088631048104908600820486010210E484A
:101B400081600021C160016141618161C161012148
:101B500049030162FEF7E6FE002801D0FEF7A8FD6A
:101B600000BF054921620846846200BF10BD000025
:101B700000100240300002404000002070B50446D2
:101B80000D4601222946206800F0E4FA206800682A
:101B90000121084321680860002070BD704770472C
:101BA00010B504462068C069C007C00F002812D0D5
:101BB00020680068FF210131084000280BD0012077
:101BC00021680862E06E01210843E0662021692057
:101BD00001556A2001552068C0690221084000288B
:101BE00011D020688068C007C00F00280BD00220E9
:101BF00021680862E06E04210843E0662021692024
:101C000001556A2001552068C06904210840002858
:101C100011D020688068C007C00F00280BD00420B6
:101C200021680862E06E02210843E06620216920F5
:101C300001556A2001552068C06908210840002824
:101C400011D020688068C007C00F00280BD0082082
:101C500021680862E06E08210843E06620216920BF
:101C600001556A200155E06E002807D02021692027
:101C700001556A2001552046FFF791FF2068C06991
:101C8000012109050840002810D0206880688900DB
:101C9000084000280AD088102168086220216920A5
:101CA00001556A2001552046FFF778FF2068C0697A
:101CB00020210840002807D020680068084000283C
:101CC00002D0204600F09CFB2068C06980210840BB
:101CD000002807D0206800680840002802D020466D
:101CE00000F02EFE2068C06940210840002807D07F
:101CF000206800680840002802D0204600F070FBF1
:101D000010BD000010B586B0044612492068884214
:101D10001ED11148806B0121490408430E49886394
:101D20000320400201900220029000200390032033
:101D300004900420059001A905200007FEF79CFEF1
:101D4000002201211C20FFF72DF81C20FFF71EF8B0
:101D500006B010BD004400400010024070477047BC
:101D600000BFFEE708B500BF0A48006B0121084329
:101D7000084908630846006BC007C00F009000BF09
:101D800000BF002211460A20FFF70CF80A20FEF7D8
:101D9000FDFF08BD0010024000B587B000BF274816
:101DA000C06A042108432549C8620846C06A042164
:101DB0000840019000BF00BF00BF2048C06A012159
:101DC00008431E49C8620846C06AC007C00F019098
:101DD00000BF00BF0022032189031948FEF738FF26
:101DE0000022912105200007FEF732FF0120800329
:101DF000029001200390002004900120059002A988
:101E00000F48FEF739FE0120C00302900120039025
:101E100000200490059002A90948FEF72DFE9120AC
:101E200002900120039000200490059002A9052053
:101E30000007FEF721FE07B000BD000000100240C1
:101E40000008005000B587B00120800718490860DD
:101E5000002048600021164881602921C1600021CE
:101E60000161FFF73DFE002801D0FEF721FC202094
:101E700005900020069005A90D48FFF75FFD00289A
:101E800001D0FEF715FC6020019000200290039025
:101E900004200490042201A90548FFF798FD0028BA
:101EA00001D0FEF705FC0248FFF779FD07B000BD41
:101EB0000800002010B50F480F490860E12000021B
:101EC000486000210C488160C16001610C214161C2
:101ED00000218161C161016200200749486200223E
:101EE00011460548FEF706FF002801D0FEF7E0FB8B
:101EF00010BD0000004400407C000020704700003E
:101F000010B5002819DA1A4A03071B0F083B9B0873
:101F10009B00D2588307DC0EFF23A3409A438B0714
:101F20001B0E8407E40EA3401A43114B0407240F31
:101F3000083CA408A4001A5118E00E4A03231B020F
:101F4000D21883089B00D2588307DC0EFF23A340DE
:101F50009A438B071B0E8407E40EA3401A43054BDC
:101F6000032424021B198408A4001A5110BD000088
:101F70001CED00E000E100E07047704770B50646D8
:101F80000C461546304600F007F8204600F004F8ED
:101F9000284600F001F870BD00B50246FEF778FB58
:101FA00000230CE080201040002802D0FEF778FBD0
:101FB00001E0FEF76DFB5006020E581CC3B2082B61
:101FC000F0DB00BD10B5FEF74FFEFFF7B3FC10BD10
:101FD00030B599B02A48806B012109070843284988
:101FE0008863284800680321C90288430121C90287
:101FF00040182449086002200C9001200F90102006
:10200000109002201590002116914104179141056E
:1020100018910CA8FFF75EF9002801D0FEF748FBE5
:102020000F20079003200890002009900A900B9041
:10203000012107A8FEF7B2FF002801D0FEF738FB08
:10204000022001900020029001A8FEF7B5FE0028B2
:1020500001D0FEF72DFBFFF79DF805467D21C90055
:10206000FEF764F80446FFF749FC0420FFF732FC52
:1020700000221146501EFEF795FE19B030BD00003B
:10208000001002400070004015480068FF21013137
:102090000843134908600846C068124908401049BF
:1020A000C86008460068104908400D4908600846A5
:1020B0008068400840008860084600680121890463
:1020C0008843074908600846C068FD210904884321
:1020D0000349C86000200861C8030449886070474C
:1020E000001002400C40FF88F6FFF6FE00ED00E015
:1020F00010B50022026801239B07984202D0144BBE
:10210000984201D1012300E00023002B05D0702468
:102110001346A3431A464B681A4301239B07984270
:1021200002D00B4B984201D1012300E00023002B89
:1021300006D0032424021346A3431A46CB681A434D
:1021400002608B68C3620B6883620123436110BD28
:102150000008014030B5002301248C402346046A66
:102160009C430462046A15468D402C43046230BDD2
:1021700070B5002200230024056A6D086D00056219
:10218000036A4468826970261546B5432A46920858
:1021900092000D682A4302261D46B5432B468D68E2
:1021A0002B43446082614D684563036270BD70B526
:1021B000002200230024056A1026B5430562036A45
:1021C00044688269072636031546B5432A46032626
:1021D00036021546B5432A460D682D022A432026AD
:1021E0001D46B5432B468D682D012B43446082610B
:1021F0004D688563036270BD70B500220023002422
:10220000056AFF260136B5430562036A4468C26960
:1022100070261546B5432A46920892000D682A4357
:10222000012676021D46B5432B468D682D022B43B1
:102230004460C2614D68C563036270BD70B5002221
:1022400000230024056A01263603B5430562036AAC
:102250004468C269072636031546B5432A46032655
:1022600036021546B5432A460D682D022A4301263B
:1022700076031D46B5432B468D682D032B434460E2
:10228000C2614D680564036270BD818CC907C90FC6
:10229000002908D001684968012252049143826AEA
:1022A0001143026851600222416A1140002907D09F
:1022B00001684968D2039143C26A114302685160C0
:1022C0000422416A1140002907D0016849681204BC
:1022D0009143026B1143026851600822416A114028
:1022E000002907D00168496812039143426B1143EA
:1022F000026851601022416A1140002907D001682C
:10230000896812029143826B114302689160202216
:10231000416A1140002907D001688968120291437F
:10232000C26B1143026891604022416A114000294A
:1023300015D00168496892039143026C1143026809
:10234000516001221205016C914208D1016849686F
:10235000032252059143426C11430268516080226E
:10236000416A1140002907D001684968120391436E
:10237000826C1143026851607047000010B504463A
:102380002068006808210840082809D1134B002262
:102390008104204600F00DFB002801D0032010BD71
:1023A0002068006804210840042809D10B4B002252
:1023B0000105204600F0FDFA002801D00320EEE7D9
:1023C00000BF00216820015500BF0020E0662021E9
:1023D000692001556A2001550020E0E7F055000012
:1023E00010B50446206800684021884321680860D1
:1023F0002021692001552046FFF7B1FC002010BDC7
:1024000070B504465C20065B6A20005D222843D13B
:1024100001210903A06888420BD12069002808D156
:10242000656D2068406A30402880606D801C606562
:1024300007E02068406AF1B20840626D511C616596
:1024400010705A20005B401E81B25A2001530029AF
:1024500020D100BF2068C069202108400028F9D1A0
:102460002068006888432168086020680068FF21B0
:102470000131884321680860206880684008400076
:102480002168886020216A2001552046FFF766FCFC
:10249000002070BD0020FCE7206880690821084307
:1024A000216888610220F4E7F0B591B00446002667
:1024B000002500200F900E90F9492068884201D134
:1024C000012000E00020002800D000E000BF2169CA
:1024D000A068084361690843E1690843064620682B
:1024E0000068F0490840304321680860206840686F
:1024F000032109038843E168084321684860A6690D
:10250000E7492068884201D1012000E0002000282E
:1025100001D1206A0643206880680B2109028843A4
:1025200030432168886000BFDF492068884216D1A7
:10253000DE48C0680C210840002806D0042808D0D6
:10254000082804D00C2808D105E0002506E0022563
:1025500004E0042502E0082500E000BF1DE0D049AA
:102560002068884219D1D148C068032189020840F7
:10257000002808D001218902401A08D0401A04D04E
:10258000401A08D105E0002506E0022504E00425F4
:1025900002E0082500E000BF00BF00BFC04920687E
:1025A000884201D1012000E0002000287ED0002DCB
:1025B00006D0022D38D0042D79D0082D78D1BDE079
:1025C000626810460021FDF789FF0B910A900222F4
:1025D0000023676838461946FDF7BEFD0391029057
:1025E000FDF77CFF07910690FEF7DAFD00210191CF
:1025F0000090FDF773FF0022AD4B03910290FDF7B1
:102600008DFE05910490079B069AFDF7D5FD099173
:1026100008900B9B0A9AFDF7E9FE0D910C90FDF7CF
:102620006BFF2168C860AFE0A04840380068102107
:1026300008400009002824D0626810460021FDF7F8
:102640004DFF0B910A900222002367683846194615
:10265000FDF782FD05910490FDF740FF0022954BA8
:1026600007910690FDF7A8FD099108900B9B0A9A27
:10267000FDF7BCFE0D910C90FDF73EFF2168C86090
:1026800027E0626810460021FDF728FF0B910A90B1
:1026900002220023676838461946FDF75DFD059163
:1026A0000490FDF71BFF0022834B02E06DE011E078
:1026B00069E007910690FDF77FFD099108900B9B5B
:1026C0000A9AFDF793FE0D910C90FDF715FF216816
:1026D000C86059E0626810460021FDF7FFFE0B91CB
:1026E0000A9002220023676838461946FDF734FD38
:1026F00003910290FDF7F2FE07910690FEF774FD3C
:10270000002101910090FDF7E9FE0022684B039142
:102710000290FDF703FE05910490079B069AFDF7D2
:102720004BFD099108900B9B0A9AFDF75FFE0D91F6
:102730000C90FDF7E1FE2168C86025E06268104654
:102740000021FDF7CBFE0B910A900222002367685F
:1027500038461946FDF700FD05910490FDF7BEFED1
:102760000022564B07910690FDF726FD099108902F
:102770000B9B0A9AFDF73AFE0D910C90FDF7BCFEFB
:102780002168C86000E000BFD1E00121C903E06911
:10279000884263D12B0000F0B0F909061320513AAA
:1027A000515151475100FEF7FBFC40006168490858
:1027B000471838466168FDF7B9FC80B20E903EE0DC
:1027C000FEF700FD40006168490847183846616817
:1027D000FDF7ACFC80B20E9031E034484038006820
:1027E000102108400009002808D061684A08344BCD
:1027F000D018FDF79BFC80B20E9007E061684A0894
:10280000304BD018FDF792FC80B20E9017E0FEF727
:10281000EBFC400061684908471838466168FDF7DD
:1028200085FC80B20E900AE061684A0801231B040F
:10283000D018FDF77BFC80B20E9000E000BF00BF17
:1028400021490E9808400F900E980007400F0F99ED
:1028500008430F900F982168C86068E02B0000F0D3
:102860004CF909061235644E6464645A6400FEF73C
:1028700097FC61684908471838466168FDF756FCBF
:102880002168C86052E0FEF79DFC6168490847185E
:1028900038466168FDF74AFC2168C86046E00000E0
:1028A00000480040F369FFEF004400404010024040
:1028B000000070408084CE418084EE410000604181
:1028C00000127A000048E801F0FF00001948006893
:1028D000102108400009002808D061684A08164BFA
:1028E000D018FDF723FC2168C86007E061684A083A
:1028F000124BD018FDF71AFC2168C86016E0FEF7ED
:1029000073FC61684908471838466168FDF70EFC9A
:102910002168C8600AE061684A080123DB03D01817
:10292000FDF704FC2168C86000E000BF00BF11B0E3
:10293000F0BD00000010024000093D000024F4003A
:1029400001466920405C212831D15220405A00289C
:102950000DD108680068802398430B6818600868E8
:102960000068402318430B6818600020704701235B
:102970001B03886898420CD10869002809D1CA6CE9
:102980001088C005C00D0B689862C86C801CC864B4
:1029900005E0CB6C581CC86418780B68986252200C
:1029A000405A401E83B2522043520020DEE70220EC
:1029B000DCE7FFB581B004460E461D460027FEF752
:1029C0004DF90746039800283BD12FE0681C0028EA
:1029D0002CD0002D04D0FEF741F9C01BA84225D908
:1029E00020680068802188432168086020680068AA
:1029F000202188432168086020680068FF21013198
:102A00008843216808602068806840084000216889
:102A100088602021692001556A20015500BF0021EE
:102A20006820015500BF032005B0F0BD2068C069D3
:102A30003040B04201D1012000E000200028C5D084
:102A400039E02EE0681C00282BD0002D04D0FEF7C2
:102A500005F9C01BA84224D920680068802188435A
:102A60002168086020680068202188432168086088
:102A700020680068FF2101318843216808602068D0
:102A80008068400840002168886020216920015545
:102A90006A20015500BF00216820015500BF0320B6
:102AA000C2E72068C0693040B04201D1012000E097
:102AB00000200028C6D10020B6E7000010B502486B
:102AC000FFF76EF810BD00007C0000202021020CF2
:102AD00001D010211046020A01D01046083902091F
:102AE00001D01046091F820801D01046891E4208F5
:102AF00001D0881E7047081A704730B47446641EAF
:102B00002578641CAB4204D3635D5B00E31830BCE2
:102B100018471D46F8E702E008C8121F08C1002A3E
:102B2000FAD170477047002001E001C1121F002A4E
:102B3000FBD170470024FEF79FF8FFF749FAFFF733
:102B40002BF9FFF70FF9FFF7B5F9FFF77BF9042130
:102B50001E48FFF713F837E0012189031C48FEF7F0
:102B600073F800F037F8002406E000221146FF2039
:102B7000FFF704FA601CC4B2242CF6DBFF20F5300A
:102B8000FDF76CFF00F026F8002406E00022FF218C
:102B90001046FFF7F3F9601CC4B2242CF6DBFF20CB
:102BA000F530FDF75BFF00F015F8002406E0FF228A
:102BB00000210846FFF7E2F9601CC4B2242CF6DBC2
:102BC000FF20F530FDF74AFFC6E7000008000020AF
:102BD0000008005010B500210348006881630120FF
:102BE000FDF73CFF10BD00000800002000000000C1
:102BF00000000000010203040607080900000000AD
:102C000001020304030406080C1018203000000021
:102C1000302C00080000002008000000162B0008DF
:102C2000382C00080800002078050000262B00083A
:082C30000000000080841E007A
:04000005080000C12E
:00000001FF
